:100000000C9434000C9451000C9451000C94510049
:100010000C9451000C9451000C9451000C9451001C
:100020000C9451000C9451000C9451000C9451000C
:100030000C9451000C9451000C9451000C945100FC
:100040000C94E3040C9451000C9451000C94510056
:100050000C9451000C9451000C9451000C945100DC
:100060000C9451000C94510011241FBECFEFD8E026
:10007000DEBFCDBF12E0A0E0B1E0E0E2F7E102C0F8
:1000800005900D92A832B107D9F725E0A8E2B2E0B9
:1000900001C01D92AF3CB207E1F70E941C090C940D
:1000A0008E0B0C940000C1E00E94E502019751F410
:1000B000C093AC0224E630E040E060E080E00E94C3
:1000C000B108F2CF1092AC02F5CF6091A802709106
:1000D000A9028091AA029091AB020E948A022AE0B2
:1000E00030E040E060E080E00E94B108EECF0E9486
:1000F000580322E047EA52E070E060E083E590E0D8
:100100000E94600723E04AE453E070E060E085E687
:1001100090E00E94600724E04AE454E070E060E070
:1001200089E991E00E94600730E020E045E060E06E
:1001300080E00E94B108F8CF861797072CF0BC0129
:10014000481759070CF4BA01CB01089597FF03C073
:1001500091958195910908958F929F92AF92BF9248
:10016000CF92DF92EF92FF92CF93DF932091C7025D
:100170003091C8022130310509F0CCC046E75EEB72
:100180006FE97DE34093AD025093AE026093AF02FE
:100190007093B002C8E2D0E06091C1027091C202D7
:1001A000681B790B072E000C880B990B0E94950A8F
:1001B0006B017C012091BD023091BE024091BF02D3
:1001C0005091C0020E94F1096093BD027093BE027B
:1001D0008093BF029093C0020E945D0A9B0177FF4B
:1001E00004C022273327261B370B21363D466CF0EF
:1001F00085B191E0892785B98091C9029091CA02A1
:1002000001969093CA028093C9022091BD02309159
:10021000BE024091BF025091C0026091B502709140
:10022000B6028091B7029091B8020E94210B4B0157
:100230005C012091AD023091AE024091AF0250912D
:10024000B002C701B6010E94210B9B01AC01C501A0
:10025000B4010E94F1094B015C012091B902309177
:10026000BA024091BB025091BC02C701B6010E9484
:10027000F0092091B1023091B2024091B302509145
:10028000B4020E94210B9B01AC01C501B4010E9484
:10029000F1090E945D0AC092B902D092BA02E092BE
:1002A000BB02F092BC029E01261B370B253631059E
:1002B00014F024E630E02C394FEF340714F42CE925
:1002C0003FEF3093AB022093AA02AE01460F571FB7
:1002D0004536510514F044E650E04C398FEF58078D
:1002E00014F44CE95FEF5093A9024093A8023093B5
:1002F000C4022093C3025093C6024093C502DF910B
:10030000CF91FF90EF90DF90CF90BF90AF909F90F4
:100310008F9008954FE852EC65E77DE34093AD027E
:100320005093AE026093AF027093B002C2E3D0E08C
:1003300033CF8091AC02813049F41092AB0210921D
:10034000AA021092A9021092A802F3CF0E940803F9
:100350008436910561F08730910588F4880F991FE4
:10036000FC01E85FFD4F808191810E94AC002AE092
:1003700030E040E060E080E00E94B108DACF88EE33
:1003800093E0F3CF80E480937C0086E880937A004A
:100390000895F894806480937C0080917A00806452
:1003A00080937A0080917A0084FFFCCF80917A005C
:1003B000806180937A0078948091780090917900A0
:1003C00093700895811105C070938900609388002F
:1003D000089570938B0060938A0008958AB1806FAE
:1003E0008AB98BB18F708BB981EA8093800083E0EA
:1003F00080938100109285001092840010928900F1
:10040000A8E8B0E01C9210928B00EAE8F0E01082BD
:1004100084B1866084B911961C921E92118210825A
:10042000089577FF02C070E060E06536710514F052
:1004300064E670E09B01220F331F75956795620F8C
:10044000731F811109C070938B0060938A007093B1
:100450004C0460934B040895709389006093880066
:100460007093500460934F040895CF93C62F262FA6
:1004700030E081112BC080914D0490914E04821781
:10048000930759F070E060E080E00E9411028FE96C
:100490009FE00197F1F700C00000C1110EC05E9807
:1004A0005F9A10924E0410924D048FE39CE90197DD
:1004B000F1F700C00000CF9108955E9A5F9881E047
:1004C00090E090934E0480934D04EFCF80915104BF
:1004D000909152048217930759F070E060E081E038
:1004E0000E9411028FE99FE00197F1F700C0000020
:1004F000C11107C05C9A5D98109252041092510489
:10050000D4CF5C985D9A81E090E090935204809300
:100510005104CBCF0F931F93CF93DF93EC018B014B
:1005200097FF1CC061E081E00E943502D195C19522
:10053000D10917FF18C061E080E00E9435021195D3
:1005400001951109B80180E00E941102BE0181E00D
:10055000DF91CF911F910F910C94110260E081E027
:100560000E943502E6CF60E080E00E943502EACFCB
:100570008093C4001092C5001092C00088E180935F
:10058000C10086E08093C20008959091C00095FF5D
:10059000FCCF8093C6000895CF938091C00087FF61
:1005A000FCCFC091C6008C2F0E94C5028C2FCF912A
:1005B0000895CF93DF93EC018991811103C0DF91FE
:1005C000CF9108950E94C502F7CF80E00E94C90133
:1005D00021E030E08436910510F030E020E0C901E0
:1005E000089584E00E94C9012BEFAC012403C001EF
:1005F000259F900D112485509C4E63E370E00E946E
:10060000A009CB016536710514F084E690E00895E9
:10061000CF93DF93C0E0D1E0CC0F8D2F0E94C901B2
:100620008C3291400CF4C160DF5FD430A9F78C2F7D
:1006300090E0DF91CF91089583B182958F7091E022
:100640008927817090E0089583B186958695869577
:1006500091E08927817090E008955B9A2FEF85EAF9
:100660009EE0215080409040E1F700C000005B9880
:100670002FEF85EA9EE0215080409040E1F700C0D6
:100680000000089585E00E94C901843F914010F464
:10069000289A08952898089589B182FB882780F9BF
:1006A00091E0892708950E944C038823E1F308957F
:1006B000F89485E085BD81E080936E0084E686BD78
:1006C0007894089587E60E94B8020C94C2010E94B3
:1006D00062030E94EE01539A5B98209A52985A9AAC
:1006E0002498239885B1886185B960E080E00E94F4
:1006F000350260E081E00E94350270E060E090E049
:1007000080E00C948A024F925F926F927F928F9258
:100710009F92AF92BF92CF92DF92EF92FF920F9390
:100720001F93CF93DF93CDB7DEB7DE015396ED91E4
:10073000FD918D015AE0652E712C8081853281F406
:100740005F0182E0A80EB11C8181843609F450C09B
:1007500090F4833661F4F80180810E5F1F4F07C06B
:10076000882309F45DC05F019FEFA91AB90A0E94AE
:10077000C502F501E2CF833771F130E1832E912C70
:10078000E12C40E1F42E883791F7F801C080D18048
:100790000E5F1F4F843659F4D7FE06C0D194C19422
:1007A000D1088DE20E94C502CE14DF0448F1C601D3
:1007B000B7010E948C092C016A5E7D4FFB0180818C
:1007C0000E94C5026201C701B4010E948C097B012D
:1007D000672B69F7CECFF801E080F1800E5F1F4FE5
:1007E000F70181917F01882321F20E94C502F8CF91
:1007F0009AE0892E912C20E1E22E27E2F22EC5CF3D
:10080000C701B3010E948C097B016230710560F65B
:10081000C6010E948C09FB01EA5EFD4F8081A7CFD3
:1008200090E080E0DF91CF911F910F91FF90EF90CA
:10083000DF90CF90BF90AF909F908F907F906F9000
:100840005F904F90089500915404039500935404D1
:10085000E0916404F0916504C191CDBFD191DEBFF8
:100860000F910FBFFF91EF91DF91CF91BF91AF91AA
:100870009F918F917F916F915F914F913F912F91B8
:100880001F910F91FF90EF90DF90CF90BF90AF90AE
:100890009F908F907F906F905F904F903F902F90A0
:1008A0001F900F9008950F921F922F923F924F9298
:1008B0005F926F927F928F929F92AF92BF92CF92F0
:1008C000DF92EF92FF920F931F932F933F934F93DB
:1008D0005F936F937F938F939F93AF93BF93CF93C8
:1008E000DF93EF93FF930FB70F93E0916C04F091B8
:1008F0006D04CDB7C193DEB7D19300915904009335
:100900005A04E0916404F0916504E0936C04F09360
:100910006D04C191CDBFD191DEBF0F910FBFFF918B
:10092000EF91DF91CF91BF91AF919F918F917F9187
:100930006F915F914F913F912F911F910F91FF9078
:10094000EF90DF90CF90BF90AF909F908F907F906F
:100950006F905F904F903F902F901F900F90089551
:100960000091590400935A04E0916404F0916504E5
:10097000E0936C04F0936D04C191CDBFD191DEBFC3
:100980000F910FBFFF91EF91DF91CF91BF91AF9189
:100990009F918F917F916F915F914F913F912F9197
:1009A0001F910F91FF90EF90DF90CF90BF90AF908D
:1009B0009F908F907F906F905F904F903F902F907F
:1009C0001F900F9008950F921F922F923F924F9277
:1009D0005F926F927F928F929F92AF92BF92CF92CF
:1009E000DF92EF92FF920F931F932F933F934F93BA
:1009F0005F936F937F938F939F93AF93BF93CF93A7
:100A0000DF93EF93FF930FB700680F9300916B0490
:100A1000039500936B04013041F4CDB7DEB7E0914C
:100A20006C04F0916D04C193D19304E606BDF0E02F
:100A30001F2E78940E94460600000E94B9050F916F
:100A40000FBFFF91EF91DF91CF91BF91AF919F9138
:100A50008F917F916F915F914F913F912F911F9156
:100A60000F91FF90EF90DF90CF90BF90AF909F904D
:100A70008F907F906F905F904F903F902F901F903E
:100A80000F900895FA0180833197908331971082F7
:100A900031971082319710823197108231971082EE
:100AA00031971082319710823197108231971082DE
:100AB00031971082319710823197108231971082CE
:100AC00031971082319710823197108231971082BE
:100AD00031971082319710823197108231971082AE
:100AE000319710823197108231971082319760834D
:100AF000319770833197108231971082319710822D
:100B0000319710823197108231971082319780E8A7
:100B10008083CA01839708950895089508950895DC
:100B200008950895089508950895F89480915504BE
:100B300090915604A0915704B09158040196A11DBC
:100B4000B11D8093550490935604A0935704B0931D
:100B5000580478940E949305E8CF80915404813022
:100B600039F480916B048F3F19F08F5F80936B0491
:100B7000089580915404813009F04CC0F89480911C
:100B80006B04882319F0815080936B0480916B046F
:100B900081113FC08091530481113BC0E0916604F4
:100BA000F0E0E050FF4FE081E0936A04AE2FB0E048
:100BB000A959BB4FAC91B0E0A050BF4FEE0FEE0F64
:100BC000EE0F8C91E80FE093590480915A04E817D6
:100BD00001F1F0E0EE0FFF1FE355FA4F80819181A4
:100BE000909365048093640480915D0490915E0409
:100BF000A0915F04B09160040196A11DB11D809386
:100C00005D0490935E04A0935F04B09360040E941F
:100C1000B0047894089580915404813049F4F89494
:100C2000809153048F3F19F08F5F80935304789421
:100C3000089580915404811128C0E0916604F0E089
:100C4000E050FF4FE081AE2FB0E0A959BB4FAC910F
:100C5000B0E0A050BF4FEE0FEE0FEE0F8C91E80FFB
:100C6000E0935904E0935A04F0E0EE0FFF1FE355C0
:100C7000FA4F8081918190936504809364049093EE
:100C80006D0480936C040C94230408950E949005D5
:100C900080915404E0915B04F0915C0421E030E029
:100CA000813001F10895F894868197810097B1F021
:100CB000019797838683892B89F4808583FD16C0ED
:100CC000809166049585892B80936604A385B0E0A6
:100CD000A959BB4F8C919485892B8C930280F38109
:100CE000E02D789481858031F1F6DCCF378326833F
:100CF000F5CF8CEF90E008950895F89480916B04FF
:100D000081113DC080915304811139C0E091660486
:100D1000F0E0E050FF4FE081AE2FB0E0A959BB4FAB
:100D2000AC91B0E0A050BF4FEE0FEE0FEE0F8C91E4
:100D3000E80FE093590480915A04E81701F1F0E0BC
:100D4000EE0FFF1FE355FA4F808191819093650468
:100D50008093640480915D0490915E04A0915F048F
:100D6000B09160040196A11DB11D80935D04909324
:100D70005E04A0935F04B09360040E9453047894CF
:100D8000089580915404813091F4F8948091530433
:100D9000882361F0815080935304811107C08091B2
:100DA0006B04811103C078940C947D0678940895A7
:100DB000AC01F894A0916C04B0916D041B96EC9179
:100DC0001B97F0E01C969C911C979095E959FB4F5E
:100DD00080819823908391110AC01D969C911D9744
:100DE000292F20959091660492239093660417967C
:100DF0005C934E93169778940C947D061F93CF9333
:100E0000DF93F894C0916104D0916204209709F4B3
:100E100054C0182F8A819B8190936204809361044F
:100E2000789479836883198718861F821E821E86AC
:100E3000E12FE695E695E695EB87F0E0E050FE4F72
:100E400080818D87E12FE770EA87F0E0E050FE4F68
:100E500080818C87CE010E949405CE010E948C0572
:100E6000F894E12FF0E0EE0FFF1FE355FA4FD18326
:100E7000C083E0915B04F0915C04FB83EA831D82F4
:100E80001C82309711F0D583C483D0935C04C09347
:100E90005B04809166049D85892B80936604EB85B5
:100EA000F0E0E959FB4F80819C85892B8083789401
:100EB00080E0DF91CF911F910895789486E4F9CF77
:100EC0009F92AF92BF92CF92DF92EF92FF920F93D9
:100ED0001F93CF93DF93F894C22FD0E0CC0FDD1F88
:100EE000C355DA4FE881F981EF2B09F03BC0922E10
:100EF00021E030E039832883789430E020E00E94BC
:100F00004205B12CA12CD12CC12CE12CF12C870154
:100F100030E020E050E040E0BC01892D0E94FE0658
:100F2000182F81111AC0F894809163048F5F809309
:100F30006304789480915404813011F40E947D06FA
:100F4000812FDF91CF911F910F91FF90EF90DF9054
:100F5000CF90BF90AF909F900895F8941982188217
:100F60007894EECF789418E2EBCF0E94910510921E
:100F70006B04109253041092630410925404109264
:100F80005D0410925E0410925F041092600410924F
:100F9000550410925604109257041092580410925F
:100FA000660410926704109268041092690410920B
:100FB0005A0410925904109265041092640410921D
:100FC0006D0410926C0410925C0410925B04EDEAC4
:100FD000F5E01192119285E0EF3CF807D1F7EEEAC7
:100FE000F4E0CF010F9693838283FC0185E0EE3914
:100FF000F807B9F71092A1051092A0058EEA94E0C7
:10100000909362048093610420E14DEA54E070E023
:1010100060E085E995E00E9460070C949205FF92DC
:101020000F931F93CF93DF93F0906B04F11076C072
:10103000F8948F3F29F4E0916C04F0916D04818560
:10104000082F10E0000F111FF801E355FA4FC0817F
:10105000D181209709F45EC0EB85F0E08C85809506
:10106000E959FB4F908189238083811108C08D85C8
:10107000982F9095809166048923809366041F823F
:101080001E821886809153048F3F19F08F5F8093E2
:1010900053047894F89480915304882319F0815074
:1010A00080935304CE010E948D058091630481508A
:1010B00080936304F801E355FA4F11821082EC81AA
:1010C000FD81AA81BB813097E1F415961C921E9296
:1010D0001497B0935C04A0935B0480916104909199
:1010E00062049B838A83D0936204C09361047894E2
:1010F0000E947D068F2DDF91CF911F910F91FF9060
:101100000895B383A283AA81BB811596FC93EE93C5
:101110001497E3CF78949CE3F92EECCF8FE3F82E6D
:10112000E9CF8F3F41F4F894E0916C04F0916D04A5
:10113000868578940895F894E82FF0E0EE0FFF1F6D
:10114000E355FA4F0190F081E02D8BE0309789F361
:101150008EE3868780E0EDCF009711F00C94D806DF
:101160000895CF92DF92EF92FF9281110DC061112D
:101170000BC041110CC02115310561F484E5FF90CD
:10118000EF90DF90CF9008956C3308F04FC04C3350
:1011900008F04EC0283E93E0390708F04BC0F90133
:1011A000582F262F30E0ACE3B0E00E94D6096B0147
:1011B0007C01C40ED11CE11CF11C252F30E0A0E104
:1011C000BEE00E94D609A7019601260F371F481FCF
:1011D000591FA4E6B0E00E94E5096B017C019F0164
:1011E0000E94D6096C507E4F8F4F9F4F28EE33E000
:1011F00040E050E00E94B409D701C601820F931F5E
:10120000A41FB51F7D010E94AC08E114F10411F484
:1012100080E0B5CF80E090E80E94D80680E090E8BA
:101220000E94D80681E0E81AF108EFCF81E5A7CF48
:1012300082E5A5CF83E5A3CF0E9467030E94B5078F
:1012400070E060E090E080E00E948A021092A902C3
:101250001092A8021092AB021092AA021092AC0255
:101260008FE892ECA5E7BDE38093AD029093AE02C8
:10127000A093AF02B093B00281E398E0ACE2BDE38B
:101280008093B1029093B202A093B302B093B402E0
:101290008CEA95ECA7EAB7E38093B5029093B60287
:1012A000A093B702B093B8021092B9021092BA029A
:1012B0001092BB021092BC021092BD021092BE02AC
:1012C0001092BF021092C0021092C4021092C30288
:1012D0001092C6021092C5021092C8021092C70264
:1012E00081E090E09093CA028093C90288EE93E077
:1012F0009093C2028093C10221E04AEC53E070E077
:1013000060E087E790E00E9460070E942D030E9442
:1013100053030E941906FFCFAA1BBB1B51E107C054
:10132000AA1FBB1FA617B70710F0A61BB70B881F75
:10133000991F5A95A9F780959095BC01CD01089504
:1013400097FB072E16F4009407D077FD09D00E9472
:101350008C0907FC05D03EF4909581959F4F089528
:10136000709561957F4F0895A1E21A2EAA1BBB1BB1
:10137000FD010DC0AA1FBB1FEE1FFF1FA217B30761
:10138000E407F50720F0A21BB30BE40BF50B661F77
:10139000771F881F991F1A9469F76095709580953B
:1013A00090959B01AC01BD01CF010895A29FB001B2
:1013B000B39FC001A39F700D811D1124911DB29F89
:1013C000700D811D1124911D08950E94D609A59FBD
:1013D000900DB49F900DA49F800D911D1124089530
:1013E0005058BB27AA270E94080A0C94E70A0E94BB
:1013F000D90A38F00E94E00A20F039F49F3F19F42E
:1014000026F40C94D60A0EF4E095E7FB0C94D00A6F
:10141000E92F0E94F80A58F3BA1762077307840786
:10142000950720F079F4A6F50C941A0B0EF4E095CC
:101430000B2EBA2FA02D0B01B90190010C01CA018E
:10144000A0011124FF27591B99F0593F50F4503E39
:1014500068F11A16F040A22F232F342F4427585F2B
:10146000F3CF469537952795A795F0405395C9F743
:101470007EF41F16BA0B620B730B840BBAF09150FB
:10148000A1F0FF0FBB1F661F771F881FC2F70EC09A
:10149000BA0F621F731F841F48F48795779567956D
:1014A000B795F7959E3F08F0B0CF9395880F08F059
:1014B0009927EE0F9795879508950E94640A68947E
:1014C000B1110C941B0B08950E94000B88F09F57DC
:1014D00098F0B92F9927B751B0F0E1F0660F771F58
:1014E000881F991F1AF0BA95C9F714C0B13091F04E
:1014F0000E941A0BB1E008950C941A0B672F782FF5
:101500008827B85F39F0B93FCCF386957795679512
:10151000B395D9F73EF490958095709561957F4F7E
:101520008F4F9F4F0895E89409C097FB3EF4909524
:101530008095709561957F4F8F4F9F4F9923A9F0AC
:10154000F92F96E9BB279395F6958795779567953B
:10155000B795F111F8CFFAF4BB0F11F460FF1BC07F
:101560006F5F7F4F8F4F9F4F16C0882311F096E912
:1015700011C0772321F09EE8872F762F05C06623C0
:1015800071F096E8862F70E060E02AF09A95660F79
:10159000771F881FDAF7880F9695879597F9089532
:1015A00097F99F6780E870E060E008959FEF80EC16
:1015B000089500240A9416161706180609060895B9
:1015C00000240A9412161306140605060895092E1F
:1015D0000394000C11F4882352F0BB0F40F4BF2B8E
:1015E00011F460FF04C06F5F7F4F8F4F9F4F0895CE
:1015F00057FD9058440F551F59F05F3F71F04795C4
:10160000880F97FB991F61F09F3F79F087950895A8
:10161000121613061406551FF2CF4695F1DF08C0C7
:10162000161617061806991FF1CF869571056105E4
:1016300008940895E894BB2766277727CB0197F98C
:1016400008950E94340B0C94E70A0E94D90A38F0DE
:101650000E94E00A20F0952311F00C94D00A0C941B
:10166000D60A11240C941B0B0E94F80A70F3959F64
:10167000C1F3950F50E0551F629FF001729FBB2789
:10168000F00DB11D639FAA27F00DB11DAA1F649F25
:101690006627B00DA11D661F829F2227B00DA11DD8
:1016A000621F739FB00DA11D621F839FA00D611D5E
:1016B000221F749F3327A00D611D231F849F600D7F
:1016C000211D822F762F6A2F11249F5750409AF0A8
:1016D000F1F088234AF0EE0FFF1FBB1F661F771F34
:1016E000881F91505040A9F79E3F510580F00C94FF
:1016F000D00A0C941B0B5F3FE4F3983ED4F386951D
:1017000077956795B795F795E7959F5FC1F7FE2B9E
:10171000880F911D9695879597F90895F894FFCFB6
:1017200000000100020001000300010002000100AE
:10173000040001000200010003000100020001009A
:101740000500010002000100030001000200010089
:10175000040001000200010003000100020001007A
:101760000600010002000100030001000200010068
:10177000040001000200010003000100020001005A
:101780000500010002000100030001000200010049
:10179000040001000200010003000100020001003A
:1017A0000700010002000100030001000200010027
:1017B000040001000200010003000100020001001A
:1017C0000500010002000100030001000200010009
:1017D00004000100020001000300010002000100FA
:1017E00006000100020001000300010002000100E8
:1017F00004000100020001000300010002000100DA
:1018000005000100020001000300010002000100C8
:1018100004000100020001000300010002000100B9
:101820000102040810204080C409D007E803DC0549
:101830000000E803F40130313233343536373839BB
:0818400041424344454600000B
:00000001FF
