:100000000C9434000C9451000C9451000C94510049
:100010000C9451000C9451000C9451000C9451001C
:100020000C9451000C9451000C9451000C9451000C
:100030000C9451000C9451000C9451000C945100FC
:100040000C946E060C9451000C9451000C945100C9
:100050000C9451000C9451000C9451000C945100DC
:100060000C9451000C94510011241FBECFEFD8E026
:10007000DEBFCDBF12E0A0E0B1E0EAE5FAE102C0E8
:1000800005900D92AA31B107D9F725E0AAE1B2E0B7
:1000900001C01D92A73CB207E1F70E94A70A0C9489
:1000A0002B0D0C940000C1E00E947004019751F4E4
:1000B000C0939E0224E630E040E060E080E00E94D1
:1000C0003C0AF2CF10929E02F5CF60919A02709195
:1000D0009B0280919C0290919D020E94150425E054
:1000E00030E040E060E080E00E943C0AEECF0E94F9
:1000F000E30422E049E952E070E060E083E590E04B
:100100000E94EB0823E042E453E070E060E085E603
:1001100090E00E94EB0824E042E454E070E060E0EC
:100120008EE691E00E94EB0830E020E045E060E0E0
:1001300080E00E943C0AF8CF861797072CF0BC019C
:10014000481759070CF4BA01CB01089597FF03C073
:1001500091958195910908954F925F926F927F9248
:100160008F929F92AF92BF92CF92DF92EF92FF92C7
:100170002091BD023091BE022130310561F448EB7F
:100180005EE165E87DE340939F025093A002609397
:10019000A1027093A2026091B3027091B402681B35
:1001A000790B072E000C880B990B0E94320C6B0107
:1001B0007C012091AF023091B0024091B102509188
:1001C000B2020E948E0B4B015C018092AF029092B2
:1001D000B002A092B102B092B20220919F0230917F
:1001E000A0024091A1025091A202C701B6010E9453
:1001F000BE0C2B013C012091A7023091A802409136
:10020000A9025091AA02C501B4010E94BE0C9B0133
:10021000AC01C301B2010E948E0B4B015C01209125
:10022000AB023091AC024091AD025091AE02C701D9
:10023000B6010E948D0B2091A3023091A40240913F
:10024000A5025091A6020E94BE0C9B01AC01C50103
:10025000B4010E948E0B0E94FA0BC092AB02D092A6
:10026000AC02E092AD02F092AE0229E130E0261B32
:10027000370B2536310514F024E630E02C394FEFEA
:10028000340714F42CE93FEF30939D0220939C0235
:10029000675E7F4F6536710514F064E670E06C3977
:1002A0008FEF780714F46CE97FEF70939B026093F3
:1002B0009A023093B6022093B5027093B80260930D
:1002C000B702FF90EF90DF90CF90BF90AF909F90DC
:1002D0008F907F906F905F904F900895512C412C9C
:1002E00002EE1FEF81E4E82EF12C9DEDC92EDD24F6
:1002F000DA942DE2622E712C32E3A32EB12C4EE162
:10030000842E912C5CE3252E312C0E947C04EC0180
:100310000E94D704882319F10E94D7048111FCCFD1
:100320008FEF481A580A95E04916510464F181E0AC
:1003300090E09093C0028093BF028091BF029091A1
:10034000C002019711F40E94B8048091BF029091FD
:10035000C002892B21F485B191E0892785B980916C
:100360009E02813009F04EC08091BD029091BE0284
:10037000019709F510929D0210929C0210929B0227
:1003800010929A02C2CF8091B9029091BA02892B41
:1003900069F48091BF029091C002892B39F481E009
:1003A00090E09093BA028093B902C7CF1092BA023C
:1003B0001092B902C2CF1092BE021092BD021092EA
:1003C000BA021092B90290929D0280929C02109300
:1003D0009B0200939A0224EF31E040E060E080E06D
:1003E0000E943C0A30929D0220929C0230929B0215
:1003F00020929A0220E233E041E060E080E00E9437
:100400003C0A83CFC535D1056CF18091BD02909136
:10041000BE02892B39F51092BA021092B90281E01E
:1004200090E09093BE028093BD0290929D028092D4
:100430009C0290929B0280929A0228E532E040E072
:1004400060E080E00E943C0A8FEB9FEF90939D025A
:1004500080939C02F0929B02E0929A0220E931E0A4
:1004600040E0CBCFC091B302D091B4020E9493047C
:10047000FC012091B9023091BA0221303105D1F44A
:10048000089708F03CC0E95BFD4F0C946D0B8802A7
:10049000880273024F027902730257028802CCED80
:1004A000D5E0CE010E94AC0025E030E0D9CFC4EF0A
:1004B000D1E0F7CF2091BD023091BE02213031054D
:1004C00051F525B131E0232725B90897C0F4E55946
:1004D000FD4F0C946D0B7302880273027602790251
:1004E00073027C027302C8EED3E0DBCFC4ECD9E028
:1004F000D8CFD0E0C0E0D5CFCCE0DEEFD2CF1093A4
:100500009D0200939C0210939B0200939A02C9CF14
:10051000C0EDD7E0C6CF2091BF023091C00221309C
:10052000310509F03AC0089708F0AEC0E656FD4F15
:100530000C946D0BC402E502DC02EE02F302A2028F
:100540000703BD028BE490E090939D0280939C0290
:1005500090939B0280939A0280919C0290919D02BD
:100560009093B6028093B50280919A0290919B027B
:100570009093B8028093B70297CFF0929D02E092D9
:100580009C028BE490E0E4CF90929D0280929C02CA
:1005900030929B0220929A0287CF089708F074C08D
:1005A000EC52FD4F0C946D0B1303E502DC02EE02DE
:1005B000F302FC0207030C03B0929D02A0929C027E
:1005C000B0929B02A0929A02C7CF70929D02609255
:1005D0009C02D0929B02C0929A02BECFF0929D02E2
:1005E000E0929C02F6CFD0929D02C0929C02709243
:1005F0009B0260929A02B0CF8FEB9FEF90939D0287
:1006000080939C02F0929B02E0929A02A5CFD09236
:100610009D02C0929C02F6CFF0929D02E0929C0255
:100620008FEB9FEF95CF6091B7027091B802665F34
:100630007F4F072E000C880B990B0E94320C2AE981
:1006400039E949E15FE30E94BE0C90580E94FA0B21
:1006500070939D0260939C026091B5027091B60206
:10066000072E000C880B990B0E94320C2AE939E9FD
:1006700049E15FE30E94BE0C90580E94FA0B709310
:100680009B0260939A0210CF10939D0200939C02EC
:1006900010939B0200939A025FCF80E480937C00CA
:1006A00086E880937A000895F894806480937C00B3
:1006B00080917A00806480937A0080917A0084FF30
:1006C000FCCF80917A00806180937A007894809149
:1006D00078009091790093700895811105C070930E
:1006E000890060938800089570938B0060938A005E
:1006F00008958AB1806F8AB98BB18F708BB981EA06
:100700008093800083E08093810010928500109296
:10071000840010928900A8E8B0E01C9210928B002F
:10072000EAE8F0E0108284B1866084B911961C92E8
:100730001E9211821082089577FF02C070E060E07F
:100740006536710514F064E670E09B01220F331FDB
:1007500075956795620F731F811109C070938B00A7
:1007600060938A00709344046093430408957093E7
:10077000890060938800709348046093470408954B
:10078000CF93C62F262F30E081112BC080914504D6
:10079000909146048217930759F070E060E080E082
:1007A0000E949C038FE99FE00197F1F700C00000D1
:1007B000C1110EC05E985F9A1092460410924504D3
:1007C0008FE39CE90197F1F700C00000CF910895F5
:1007D0005E9A5F9881E090E0909346048093450490
:1007E000EFCF8091490490914A048217930759F002
:1007F00070E060E081E00E949C038FE99FE0019738
:10080000F1F700C00000C11107C05C9A5D9810921A
:100810004A0410924904D4CF5C985D9A81E090E03C
:1008200090934A0480934904CBCF0F931F93CF93A7
:10083000DF93EC018B0197FF1CC061E081E00E9417
:10084000C003D195C195D10917FF18C061E080E0C0
:100850000E94C003119501951109B80180E00E9422
:100860009C03BE0181E0DF91CF911F910F910C9409
:100870009C0360E081E00E94C003E6CF60E080E07E
:100880000E94C003EACF8093C4001092C50010926A
:10089000C00088E18093C10086E08093C200089583
:1008A0009091C00095FFFCCF8093C6000895CF9330
:1008B0008091C00087FFFCCFC091C6008C2F0E94A2
:1008C00050048C2FCF910895CF93DF93EC01899141
:1008D000811103C0DF91CF9108950E945004F7CF9A
:1008E00080E00E94540321E030E08436910510F04E
:1008F00030E020E0C901089584E00E9454032BEF0A
:10090000AC012403C001259F900D112485509C4EFD
:1009100063E370E00E94370BCB016536710514F07C
:1009200084E690E00895CF93DF93C0E0D1E0CC0F50
:100930008D2F0E9454038C3291400CF4C160DF5F14
:10094000D430A9F78C2F90E0DF91CF91089583B137
:1009500082958F7091E08927817090E0089583B12E
:1009600086958695869591E08927817090E0089517
:100970005B9A2FEF85EA9EE0215080409040E1F79E
:1009800000C000005B982FEF85EA9EE02150804078
:100990009040E1F700C00000089585E00E945403F4
:1009A000843F914010F4289A08952898089589B1B9
:1009B00082FB882780F991E0892708950E94D70457
:1009C0008823E1F30895F89485E085BD81E0809364
:1009D0006E0084E686BD7894089587E60E944304FD
:1009E0000C944D030E94ED040E947903539A5B9886
:1009F000209A52985A9A2498239885B1886185B98B
:100A000060E080E00E94C00360E081E00E94C003DB
:100A100070E060E090E080E00C9415044F925F92EB
:100A20006F927F928F929F92AF92BF92CF92DF92FE
:100A3000EF92FF920F931F93CF93DF93CDB7DEB763
:100A4000DE015396ED91FD918D015AE0652E712CDA
:100A50008081853281F45F0182E0A80EB11C818122
:100A6000843609F450C090F4833661F4F801808133
:100A70000E5F1F4F07C0882309F45DC05F019FEF21
:100A8000A91AB90A0E945004F501E2CF833771F127
:100A900030E1832E912CE12C40E1F42E883791F740
:100AA000F801C080D1800E5F1F4F843659F4D7FE05
:100AB00006C0D194C194D1088DE20E945004CE1496
:100AC000DF0448F1C601B7010E94230B2C01685FC7
:100AD0007D4FFB0180810E9450046201C701B40177
:100AE0000E94230B7B01672B69F7CECFF801E080D2
:100AF000F1800E5F1F4FF70181917F01882321F262
:100B00000E945004F8CF9AE0892E912C20E1E22E29
:100B100027E2F22EC5CFC701B3010E94230B7B0150
:100B20006230710560F6C6010E94230BFB01E85F8D
:100B3000FD4F8081A7CF90E080E0DF91CF911F91A2
:100B40000F91FF90EF90DF90CF90BF90AF909F906C
:100B50008F907F906F905F904F90089500914C041C
:100B6000039500934C04E0915C04F0915D04C19105
:100B7000CDBFD191DEBF0F910FBFFF91EF91DF91FC
:100B8000CF91BF91AF919F918F917F916F915F9125
:100B90004F913F912F911F910F91FF90EF90DF9018
:100BA000CF90BF90AF909F908F907F906F905F900D
:100BB0004F903F902F901F900F9008950F921F928B
:100BC0002F923F924F925F926F927F928F929F925D
:100BD000AF92BF92CF92DF92EF92FF920F931F934B
:100BE0002F933F934F935F936F937F938F939F9335
:100BF000AF93BF93CF93DF93EF93FF930FB70F9311
:100C0000E0916404F0916504CDB7C193DEB7D19350
:100C10000091510400935204E0915C04F0915D0452
:100C2000E0936404F0936504C191CDBFD191DEBF20
:100C30000F910FBFFF91EF91DF91CF91BF91AF91D6
:100C40009F918F917F916F915F914F913F912F91E4
:100C50001F910F91FF90EF90DF90CF90BF90AF90DA
:100C60009F908F907F906F905F904F903F902F90CC
:100C70001F900F9008950091510400935204E09149
:100C80005C04F0915D04E0936404F0936504C19109
:100C9000CDBFD191DEBF0F910FBFFF91EF91DF91DB
:100CA000CF91BF91AF919F918F917F916F915F9104
:100CB0004F913F912F911F910F91FF90EF90DF90F7
:100CC000CF90BF90AF909F908F907F906F905F90EC
:100CD0004F903F902F901F900F9008950F921F926A
:100CE0002F923F924F925F926F927F928F929F923C
:100CF000AF92BF92CF92DF92EF92FF920F931F932A
:100D00002F933F934F935F936F937F938F939F9313
:100D1000AF93BF93CF93DF93EF93FF930FB7006829
:100D20000F9300916304039500936304013041F431
:100D3000CDB7DEB7E0916404F0916504C193D1931F
:100D400004E606BDF0E01F2E78940E94D107000053
:100D50000E9444070F910FBFFF91EF91DF91CF9158
:100D6000BF91AF919F918F917F916F915F914F91C3
:100D70003F912F911F910F91FF90EF90DF90CF90B7
:100D8000BF90AF909F908F907F906F905F904F90AB
:100D90003F902F901F900F900895FA018083319714
:100DA000908331971082319710823197108231975A
:100DB00010823197108231971082319710823197CB
:100DC00010823197108231971082319710823197BB
:100DD00010823197108231971082319710823197AB
:100DE000108231971082319710823197108231979B
:100DF000108231971082319710823197108231978B
:100E000010823197608331977083319710823197C8
:100E1000108231971082319710823197108231976A
:100E20001082319780E88083CA01839708950895DE
:100E300008950895089508950895089508950895CA
:100E4000F89480914D0490914E04A0914F04B0917C
:100E500050040196A11DB11D80934D0490934E0442
:100E6000A0934F04B093500478940E941E07E8CFDB
:100E700080914C04813039F4809163048F3F19F0E4
:100E80008F5F80936304089580914C04813009F052
:100E90004CC0F89480916304882319F081508093AA
:100EA00063048091630481113FC080914B048111E0
:100EB0003BC0E0915E04F0E0E050FF4FE081E09342
:100EC0006204AE2FB0E0A15ABB4FAC91B0E0A0508D
:100ED000BF4FEE0FEE0FEE0F8C91E80FE093510431
:100EE00080915204E81701F1F0E0EE0FFF1FEB557F
:100EF000FA4F8081918190935D0480935C0480918E
:100F0000550490915604A0915704B091580401964D
:100F1000A11DB11D8093550490935604A0935704CE
:100F2000B09358040E943B067894089580914C0435
:100F3000813049F4F89480914B048F3F19F08F5F12
:100F400080934B047894089580914C04811128C0BB
:100F5000E0915E04F0E0E050FF4FE081AE2FB0E0A2
:100F6000A15ABB4FAC91B0E0A050BF4FEE0FEE0FB7
:100F7000EE0F8C91E80FE0935104E0935204F0E0FF
:100F8000EE0FFF1FEB55FA4F8081918190935D0426
:100F900080935C0490936504809364040C94AE0584
:100FA00008950E941B0780914C04E0915304F09136
:100FB000540421E030E0813001F10895F8948681F5
:100FC00097810097B1F0019797838683892B89F4E5
:100FD000808583FD16C080915E049585892B809362
:100FE0005E04A385B0E0A15ABB4F8C919485892BF8
:100FF0008C930280F381E02D789481858031F1F625
:10100000DCCF37832683F5CF8CEF90E008950895E9
:10101000F8948091630481113DC080914B0481114B
:1010200039C0E0915E04F0E0E050FF4FE081AE2F68
:10103000B0E0A15ABB4FAC91B0E0A050BF4FEE0F53
:10104000EE0FEE0F8C91E80FE09351048091520463
:10105000E81701F1F0E0EE0FFF1FEB55FA4F80812A
:10106000918190935D0480935C04809155049091EC
:101070005604A0915704B09158040196A11DB11DCA
:101080008093550490935604A0935704B09358044A
:101090000E94DE057894089580914C04813091F48B
:1010A000F89480914B04882361F0815080934B0425
:1010B000811107C080916304811103C078940C945E
:1010C000080878940895AC01F894A0916404B09154
:1010D00065041B96EC911B97F0E01C969C911C9765
:1010E0009095E15AFB4F80819823908391110AC01B
:1010F0001D969C911D97292F209590915E04922317
:1011000090935E0417965C934E93169778940C9484
:1011100008081F93CF93DF93F894C0915904D0919E
:101120005A04209709F454C0182F8A819B81909308
:101130005A048093590478947983688319871886B0
:101140001F821E821E86E12FE695E695E695EB87C7
:10115000F0E0E050FE4F80818D87E12FE770EA8755
:10116000F0E0E050FE4F80818C87CE010E941F0787
:10117000CE010E941707F894E12FF0E0EE0FFF1F59
:10118000EB55FA4FD183C083E0915304F09154049E
:10119000FB83EA831D821C82309711F0D583C483C0
:1011A000D0935404C093530480915E049D85892B91
:1011B00080935E04EB85F0E0E15AFB4F80819C85D3
:1011C000892B8083789480E0DF91CF911F910895DF
:1011D000789486E4F9CF9F92AF92BF92CF92DF923C
:1011E000EF92FF920F931F93CF93DF93F894C22F48
:1011F000D0E0CC0FDD1FCB55DA4FE881F981EF2B22
:1012000009F03BC0922E21E030E0398328837894A6
:1012100030E020E00E94CD06B12CA12CD12CC12CB5
:10122000E12CF12C870130E020E050E040E0BC01EF
:10123000892D0E948908182F81111AC0F894809175
:101240005B048F5F80935B04789480914C048130C1
:1012500011F40E940808812FDF91CF911F910F9107
:10126000FF90EF90DF90CF90BF90AF909F90089548
:10127000F894198218827894EECF789418E2EBCF24
:101280000E941C071092630410924B0410925B049E
:1012900010924C0410925504109256041092570468
:1012A0001092580410924D0410924E0410924F0464
:1012B0001092500410925E0410925F041092600429
:1012C00010926104109252041092510410925D0425
:1012D00010925C04109265041092640410925404FD
:1012E00010925304E5EAF5E01192119285E0E73C93
:1012F000F807D1F7E6EAF4E0CF010F9693838283F3
:10130000FC0185E0E639F807B9F7109299051092CB
:10131000980586EA94E090935A048093590420E15A
:1013200045EA54E070E060E080E297E00E94EB085C
:101330000C941D07FF920F931F93CF93DF93F090B0
:101340006304F11076C0F8948F3F29F4E0916404AF
:10135000F09165048185082F10E0000F111FF8013E
:10136000EB55FA4FC081D181209709F45EC0EB851F
:10137000F0E08C858095E15AFB4F90818923808332
:10138000811108C08D85982F909580915E048923E6
:1013900080935E041F821E82188680914B048F3FCB
:1013A00019F08F5F80934B047894F89480914B04EC
:1013B000882319F0815080934B04CE010E941807B6
:1013C00080915B04815080935B04F801EB55FA4FE8
:1013D00011821082EC81FD81AA81BB813097E1F4FA
:1013E00015961C921E921497B0935404A093530424
:1013F0008091590490915A049B838A83D0935A0414
:10140000C093590478940E9408088F2DDF91CF91E2
:101410001F910F91FF900895B383A283AA81BB818E
:101420001596FC93EE931497E3CF78949CE3F92EF2
:10143000ECCF8FE3F82EE9CF8F3F41F4F894E091A1
:101440006404F0916504868578940895F894E82FF3
:10145000F0E0EE0FFF1FEB55FA4F0190F081E02D09
:101460008BE0309789F38EE3868780E0EDCF00979D
:1014700011F00C9463080895CF92DF92EF92FF92DF
:1014800081110DC061110BC041110CC02115310536
:1014900061F484E5FF90EF90DF90CF9008956C3376
:1014A00008F04FC04C3308F04EC0283E93E0390797
:1014B00008F04BC0F901582F262F30E0ACE3B0E024
:1014C0000E94730B6B017C01C40ED11CE11CF11C4A
:1014D000252F30E0A0E1BEE00E94730BA70196012A
:1014E000260F371F481F591FA4E6B0E00E94820B49
:1014F0006B017C019F010E94730B6C507E4F8F4FDC
:101500009F4F28EE33E040E050E00E944B0BD701A4
:10151000C601820F931FA41FB51F7D010E94370AC9
:10152000E114F10411F480E0B5CF80E090E80E946E
:10153000630880E090E80E94630881E0E81AF108FF
:10154000EFCF81E5A7CF82E5A5CF83E5A3CF0E94AA
:10155000F2040E94400970E060E090E080E00E94A8
:10156000150410929B0210929A0210929D02109202
:101570009C0210929E0284EF9DEFA4E5BDE3809350
:101580009F029093A002A093A102B093A20281E3D4
:1015900098E0ACE2BDE38093A3029093A402A093F1
:1015A000A502B093A6028CEA95ECA7EAB7E3809374
:1015B000A7029093A802A093A902B093AA02109246
:1015C000AB021092AC021092AD021092AE021092D9
:1015D000AF021092B0021092B1021092B2021092B9
:1015E000B6021092B5021092B8021092B702109291
:1015F000BA021092B9021092BC021092BB02109271
:10160000BE021092BD021092C0021092BF0281E091
:1016100090E09093C2028093C10288EE93E0909391
:10162000B4028093B30221E042EC53E070E060E04A
:1016300087E790E00E94EB080E94B8040E94DE0455
:101640000E94A407FFCFAA1BBB1B51E107C0AA1F22
:10165000BB1FA617B70710F0A61BB70B881F991F53
:101660005A95A9F780959095BC01CD01089597FBF7
:10167000072E16F4009407D077FD09D00E94230BA3
:1016800007FC05D03EF4909581959F4F0895709585
:1016900061957F4F0895A1E21A2EAA1BBB1BFD0185
:1016A0000DC0AA1FBB1FEE1FFF1FA217B307E40741
:1016B000F50720F0A21BB30BE40BF50B661F771F99
:1016C000881F991F1A9469F7609570958095909579
:1016D0009B01AC01BD01CF010895EE0FFF1F0590E6
:1016E000F491E02D0994A29FB001B39FC001A39F84
:1016F000700D811D1124911DB29F700D811D11244B
:10170000911D08950E94730BA59F900DB49F900D9D
:10171000A49F800D911D112408955058BB27AA271E
:101720000E94A50B0C94840C0E94760C38F00E9449
:101730007D0C20F039F49F3F19F426F40C94730CBF
:101740000EF4E095E7FB0C946D0CE92F0E94950CCC
:1017500058F3BA17620773078407950720F079F4E6
:10176000A6F50C94B70C0EF4E0950B2EBA2FA02D15
:101770000B01B90190010C01CA01A0011124FF273E
:10178000591B99F0593F50F4503E68F11A16F04039
:10179000A22F232F342F4427585FF3CF4695379538
:1017A0002795A795F0405395C9F77EF41F16BA0BFD
:1017B000620B730B840BBAF09150A1F0FF0FBB1FAB
:1017C000661F771F881FC2F70EC0BA0F621F731FF4
:1017D000841F48F4879577956795B795F7959E3F51
:1017E00008F0B0CF9395880F08F09927EE0F9795E2
:1017F000879508950E94010C6894B1110C94B80C5F
:1018000008950E949D0C88F09F5798F0B92F992752
:10181000B751B0F0E1F0660F771F881F991F1AF0DB
:10182000BA95C9F714C0B13091F00E94B70CB1E07D
:1018300008950C94B70C672F782F8827B85F39F07C
:10184000B93FCCF3869577956795B395D9F73EF474
:1018500090958095709561957F4F8F4F9F4F08951C
:10186000E89409C097FB3EF490958095709561953A
:101870007F4F8F4F9F4F9923A9F0F92F96E9BB27F0
:101880009395F695879577956795B795F111F8CF6C
:10189000FAF4BB0F11F460FF1BC06F5F7F4F8F4FD7
:1018A0009F4F16C0882311F096E911C0772321F0CD
:1018B0009EE8872F762F05C0662371F096E8862F65
:1018C00070E060E02AF09A95660F771F881FDAF7BC
:1018D000880F9695879597F9089597F99F6780E8FF
:1018E00070E060E008959FEF80EC089500240A9472
:1018F0001616170618060906089500240A941216EB
:101900001306140605060895092E0394000C11F41D
:10191000882352F0BB0F40F4BF2B11F460FF04C0CA
:101920006F5F7F4F8F4F9F4F089557FD9058440F23
:10193000551F59F05F3F71F04795880F97FB991F2E
:1019400061F09F3F79F087950895121613061406EB
:10195000551FF2CF4695F1DF08C016161706180678
:10196000991FF1CF86957105610508940895E89453
:10197000BB2766277727CB0197F908950E94D10CE2
:101980000C94840C0E94760C38F00E947D0C20F0A0
:10199000952311F00C946D0C0C94730C11240C9481
:1019A000B80C0E94950C70F3959FC1F3950F50E011
:1019B000551F629FF001729FBB27F00DB11D639F01
:1019C000AA27F00DB11DAA1F649F6627B00DA11DA7
:1019D000661F829F2227B00DA11D621F739FB00D4D
:1019E000A11D621F839FA00D611D221F749F3327BD
:1019F000A00D611D231F849F600D211D822F762F56
:101A00006A2F11249F5750409AF0F1F088234AF032
:101A1000EE0FFF1FBB1F661F771F881F915050409E
:101A2000A9F79E3F510580F00C946D0C0C94B80CF6
:101A30005F3FE4F3983ED4F3869577956795B79525
:101A4000F795E7959F5FC1F7FE2B880F911D96953F
:0A1A5000879597F90895F894FFCFE9
:101A5A000000010002000100030001000200010071
:101A6A00040001000200010003000100020001005D
:101A7A00050001000200010003000100020001004C
:101A8A00040001000200010003000100020001003D
:101A9A00060001000200010003000100020001002B
:101AAA00040001000200010003000100020001001D
:101ABA00050001000200010003000100020001000C
:101ACA0004000100020001000300010002000100FD
:101ADA0007000100020001000300010002000100EA
:101AEA0004000100020001000300010002000100DD
:101AFA0005000100020001000300010002000100CC
:101B0A0004000100020001000300010002000100BC
:101B1A0006000100020001000300010002000100AA
:101B2A00040001000200010003000100020001009C
:101B3A00050001000200010003000100020001008B
:101B4A00040001000200010003000100020001007C
:101B5A0001020408102040803031323334353637E0
:0A1B6A00383941424344454600006B
:00000001FF
