:100000000C9434000C9451000C9451000C94510049
:100010000C9451000C9451000C9451000C9451001C
:100020000C9451000C9451000C9451000C9451000C
:100030000C9451000C9451000C9451000C945100FC
:100040000C94AD060C9451000C9451000C9451008A
:100050000C9451000C9451000C9451000C945100DC
:100060000C9451000C94510011241FBECFEFD8E026
:10007000DEBFCDBF12E0A0E0B1E0E8EDFAE102C0E2
:1000800005900D92A036B107D9F726E0A0E6B2E0C0
:1000900001C01D92AD30B207E1F70E94E60A0C9450
:1000A0006A0D0C940000C9E1D2E011E00E94AF0497
:1000B000019781F4DF93CF930E944D051093E402E2
:1000C0000F900F9021E030E040E060E080E00E947F
:1000D0007B0AECCF1092E402F5CFCCE2D2E0DF93C2
:1000E000CF930E944D056091E0027091E1027195FD
:1000F000619571098091E2029091E3029195819559
:1001000091090E94540421E030E040E060E080E08A
:100110000E947B0A0F900F90E2CF89E392E09F93B9
:100120008F930E944D050E94220524E048E854E088
:1001300070E060E08CE891E00E942A0922E04FED37
:1001400052E070E060E083E590E00E942A0923E03D
:1001500048E853E070E060E08DE690E00E942A09F4
:100160000F900F9030E020E045E060E080E00E94DA
:100170007B0AF8CF861797072CF0BC014817590760
:100180000CF4BA01CB01089597FF03C091958195B6
:10019000910908954F925F926F927F928F929F92F2
:1001A000AF92BF92CF92DF92EF92FF922091030322
:1001B000309104032130310561F448EB5EE165E8DC
:1001C0007DE34093E5025093E6026093E70270936B
:1001D000E8026091F9027091FA02681B790B072E10
:1001E000000C880B990B0E94710C6B017C01209113
:1001F000F5023091F6024091F7025091F8020E9408
:10020000CD0B4B015C018092F5029092F602A09218
:10021000F702B092F8022091E5023091E602409197
:10022000E7025091E802C701B6010E94FD0C2B01C4
:100230003C012091ED023091EE024091EF0250918D
:10024000F002C501B4010E94FD0C9B01AC01C30189
:10025000B2010E94CD0B4B015C012091F102309163
:10026000F2024091F3025091F402C701B6010E94DC
:10027000CC0B2091E9023091EA024091EB025091BF
:10028000EC020E94FD0C9B01AC01C501B4010E946F
:10029000CD0B0E94390CC092F102D092F202E09292
:1002A000F302F092F40229E130E0261B370B2536E9
:1002B000310514F024E630E02C394FEF340714F404
:1002C0002CE93FEF3093E3022093E202675E7F4F19
:1002D0006536710514F064E670E06C398FEF7807CD
:1002E00014F46CE97FEF7093E1026093E0023093C5
:1002F000FC022093FB027093FE026093FD02FF90CC
:10030000EF90DF90CF90BF90AF909F908F907F90B5
:100310006F905F904F900895512C412CC2EEDFEF0B
:1003200001E410E06DEDE62EFF24FA947DE2672EE5
:10033000712CE2E3CE2ED12CFEE18F2E912CACE37A
:100340002A2E312C85E492E09F938F930E944D05D5
:100350000E94BB045C010E9416050F900F90882339
:1003600019F10E9416058111FCCF8FEF481A580A27
:1003700095E04916510464F181E090E09093060302
:10038000809305038091050390910603019711F472
:100390000E94F7048091050390910603892B21F4B4
:1003A00085B191E0892785B98091E402813009F017
:1003B0004EC08091030390910403019709F51092B8
:1003C000E3021092E2021092E1021092E002BACF30
:1003D0008091FF0290910003892B69F480910503BD
:1003E00090910603892B39F481E090E0909300030B
:1003F0008093FF02C7CF109200031092FF02C2CF7A
:100400001092040310920303109200031092FF0253
:100410009092E3028092E202D093E102C093E00264
:1004200020E233E040E060E080E00E947B0A30920E
:10043000E3022092E2023092E1022092E00220E206
:1004400033E041E060E080E00E947B0A7BCF95E5ED
:10045000A916B104CCF18091030390910403892B78
:1004600099F58FE492E09F938F930E944D0510922F
:1004700000031092FF0281E090E0909304038093C8
:1004800003039092E3028092E2029092E102809252
:10049000E00228E532E040E060E080E00E947B0A74
:1004A0008FEB9FEF9093E3028093E2021093E102BF
:1004B0000093E00228EC30E040E060E080E00E9441
:1004C0007B0A0F900F903ECFA090F902B090FA02F5
:1004D0000E94D204FC012091FF02309100032130E0
:1004E0003105F9F4089708F047C0E758FD4F0C9420
:1004F000AC0BC502C502AA028102B402AA028C0298
:10050000C5025CEDA52E55E0B52EC5010E94CA00BE
:1005100021E030E040E096CF44EFA42EBB24B3941A
:10052000F4CF20910303309104032130310591F57C
:1005300025B131E0232725B90897F0F4EE55FD4F9A
:100540000C94AC0BAA02C502AA02AF02B402AA0222
:10055000B702AA0238EEA32E33E0B32ED6CF24EC96
:10056000A22E29E0B22ED1CFB12CA12CCECF9CE06F
:10057000A92E9EEFB92EC9CFD093E302C093E20219
:10058000D093E102C093E002C0CF80EDA82E87E0B7
:10059000B82EBBCF209105033091060321303105E1
:1005A00009F03AC0089708F0AEC0E752FD4F0C942E
:1005B000AC0B030324031B032D033203E1024603A8
:1005C000FC028BE490E09093E3028093E20290932C
:1005D000E1028093E0028091E2029091E302909325
:1005E000FC028093FB028091E0029091E1029093E3
:1005F000FE028093FD028CCF1093E3020093E2028F
:100600008BE490E0E4CF9092E3028092E202309299
:10061000E1022092E0027CCF089708F074C0ED5E02
:10062000FC4F0C94AC0B520324031B032D03320329
:100630003B0346034B03D092E302C092E202D09206
:10064000E102C092E002C7CF7092E3026092E20240
:10065000F092E102E092E002BECF1093E302009339
:10066000E202F6CFF092E302E092E2027092E1023F
:100670006092E002B0CF8FEB9FEF9093E302809304
:10068000E2021093E1020093E002A5CFF092E302B0
:10069000E092E202F6CF1093E3020093E2028FEBC6
:1006A0009FEF95CF6091FD027091FE02665F7F4FD4
:1006B000072E000C880B990B0E94710C2AE939E96E
:1006C00049E15FE30E94FD0C90580E94390C709341
:1006D000E3026093E2026091FB027091FC02072E3C
:1006E000000C880B990B0E94710C2AE939E949E149
:1006F0005FE30E94FD0C90580E94390C7093E10258
:100700006093E00205CFD093E302C093E202D0935E
:10071000E102C093E0025FCF80E480937C0086E832
:1007200080937A000895F894806480937C0080918F
:100730007A00806480937A0080917A0084FFFCCFF5
:1007400080917A00806180937A007894809178001B
:100750009091790093700895811105C0709389007C
:1007600060938800089570938B0060938A000895C9
:100770008AB1806F8AB98BB18F708BB981EA80930F
:10078000800083E0809381001092850010928400A5
:1007900010928900A8E8B0E01C9210928B00EAE861
:1007A000F0E0108284B1866084B911961C921E928A
:1007B00011821082089577FF02C070E060E0653614
:1007C000710514F064E670E09B01220F331F7595EC
:1007D0006795620F731F811109C070938B0060933E
:1007E0008A0070938A046093890408957093890045
:1007F0006093880070938E0460938D040895CF9366
:10080000C62F262F30E081112BC080918B04909150
:100810008C048217930759F070E060E080E00E943A
:10082000DB038FE99FE00197F1F700C00000C111E1
:100830000EC05E985F9A10928C0410928B048FE326
:100840009CE90197F1F700C00000CF9108955E9AEE
:100850005F9881E090E090938C0480938B04EFCFBD
:1008600080918F04909190048217930759F070E063
:1008700060E081E00E94DB038FE99FE00197F1F7E0
:1008800000C00000C11107C05C9A5D9810929004EE
:1008900010928F04D4CF5C985D9A81E090E09093A1
:1008A000900480938F04CBCF0F931F93CF93DF934C
:1008B000EC018B0197FF1CC061E081E00E94FF0307
:1008C000D195C195D10917FF18C061E080E00E9461
:1008D000FF03119501951109B80180E00E94DB0327
:1008E000BE0181E0DF91CF911F910F910C94DB034A
:1008F00060E081E00E94FF03E6CF60E080E00E94BC
:10090000FF03EACF8093C4001092C5001092C0008C
:1009100088E18093C10086E08093C20008959091A1
:10092000C00095FFFCCF8093C6000895CF938091BF
:10093000C00087FFFCCFC091C6008C2F0E948F049F
:100940008C2FCF910895CF93DF93EC018991811182
:1009500003C0DF91CF9108950E948F04F7CF80E00C
:100960000E94930321E030E08436910510F030E0DE
:1009700020E0C901089584E00E9493032BEFAC01AD
:100980002403C001259F900D112485509C4E63E3E4
:1009900070E00E94760BCB016536710514F084E699
:1009A00090E00895CF93DF93C0E0D1E0CC0F8D2F7E
:1009B0000E9493038C3291400CF4C160DF5FD4300D
:1009C000A9F78C2F90E0DF91CF91089583B18295A4
:1009D0008F7091E08927817090E0089583B18695AA
:1009E0008695869591E08927817090E008955B9ABD
:1009F0002FEF85EA9EE0215080409040E1F700C053
:100A000000005B982FEF85EA9EE0215080409040E7
:100A1000E1F700C00000089585E00E949303843F41
:100A2000914010F4289A08952898089589B182FB7E
:100A3000882780F991E0892708950E941605882368
:100A4000E1F30895F89485E085BD81E080936E0020
:100A500084E686BD7894089587E60E9482040C940B
:100A60008C030E942C050E94B803539A5B98209A2D
:100A700052985A9A2498239885B1886185B960E084
:100A800080E00E94FF0360E081E00E94FF0370E0CD
:100A900060E090E080E00C9454044F925F926F927B
:100AA0007F928F929F92AF92BF92CF92DF92EF92FE
:100AB000FF920F931F93CF93DF93CDB7DEB7DE0185
:100AC0005396ED91FD918D015AE0652E712C808138
:100AD000853281F45F0182E0A80EB11C81818436E9
:100AE00009F450C090F4833661F4F80180810E5F00
:100AF0001F4F07C0882309F45DC05F019FEFA91A4B
:100B0000B90A0E948F04F501E2CF833771F130E119
:100B1000832E912CE12C40E1F42E883791F7F801D7
:100B2000C080D1800E5F1F4F843659F4D7FE06C0B7
:100B3000D194C194D1088DE20E948F04CE14DF04B9
:100B400048F1C601B7010E94620B2C01685F7D4F1E
:100B5000FB0180810E948F046201C701B4010E94E1
:100B6000620B7B01672B69F7CECFF801E080F18043
:100B70000E5F1F4FF70181917F01882321F20E94B0
:100B80008F04F8CF9AE0892E912C20E1E22E27E203
:100B9000F22EC5CFC701B3010E94620B7B01623008
:100BA000710560F6C6010E94620BFB01E85FFD4F14
:100BB0008081A7CF90E080E0DF91CF911F910F91CE
:100BC000FF90EF90DF90CF90BF90AF909F908F906D
:100BD0007F906F905F904F900895009192040395DD
:100BE00000939204E091A204F091A304C191CDBFBF
:100BF000D191DEBF0F910FBFFF91EF91DF91CF91A8
:100C0000BF91AF919F918F917F916F915F914F9124
:100C10003F912F911F910F91FF90EF90DF90CF9018
:100C2000BF90AF909F908F907F906F905F904F900C
:100C30003F902F901F900F9008950F921F922F9228
:100C40003F924F925F926F927F928F929F92AF925C
:100C5000BF92CF92DF92EF92FF920F931F932F9349
:100C60003F934F935F936F937F938F939F93AF9334
:100C7000BF93CF93DF93EF93FF930FB70F93E09161
:100C8000AA04F091AB04CDB7C193DEB7D193009124
:100C9000970400939804E091A204F091A304E093D8
:100CA000AA04F093AB04C191CDBFD191DEBF0F91E7
:100CB0000FBFFF91EF91DF91CF91BF91AF919F91C6
:100CC0008F917F916F915F914F913F912F911F91E4
:100CD0000F91FF90EF90DF90CF90BF90AF909F90DB
:100CE0008F907F906F905F904F903F902F901F90CC
:100CF0000F9008950091970400939804E091A20446
:100D0000F091A304E093AA04F093AB04C191CDBF8A
:100D1000D191DEBF0F910FBFFF91EF91DF91CF9186
:100D2000BF91AF919F918F917F916F915F914F9103
:100D30003F912F911F910F91FF90EF90DF90CF90F7
:100D4000BF90AF909F908F907F906F905F904F90EB
:100D50003F902F901F900F9008950F921F922F9207
:100D60003F924F925F926F927F928F929F92AF923B
:100D7000BF92CF92DF92EF92FF920F931F932F9328
:100D80003F934F935F936F937F938F939F93AF9313
:100D9000BF93CF93DF93EF93FF930FB700680F9349
:100DA0000091A90403950093A904013041F4CDB743
:100DB000DEB7E091AA04F091AB04C193D19304E6AD
:100DC00006BDF0E01F2E78940E94100800000E94DB
:100DD00083070F910FBFFF91EF91DF91CF91BF91EB
:100DE000AF919F918F917F916F915F914F913F91C3
:100DF0002F911F910F91FF90EF90DF90CF90BF90B8
:100E0000AF909F908F907F906F905F904F903F90AA
:100E10002F901F900F900895FA018083319790834F
:100E2000319710823197108231971082319710825A
:100E3000319710823197108231971082319710824A
:100E4000319710823197108231971082319710823A
:100E5000319710823197108231971082319710822A
:100E6000319710823197108231971082319710821A
:100E7000319710823197108231971082319710820A
:100E80003197608331977083319710823197108248
:100E900031971082319710823197108231971082EA
:100EA000319780E88083CA01839708950895089553
:100EB0000895089508950895089508950895F8945B
:100EC0008091930490919404A0919504B09196041C
:100ED0000196A11DB11D8093930490939404A09357
:100EE0009504B093960478940E945D07E8CF8091B2
:100EF0009204813039F48091A9048F3F19F08F5FFB
:100F00008093A904089580919204813009F04CC027
:100F1000F8948091A904882319F081508093A90442
:100F20008091A90481113FC08091910481113BC03F
:100F3000E091A404F0E0E050FF4FE081E093A804CA
:100F4000AE2FB0E0AB55BB4FAC91B0E0A050BF4F5F
:100F5000EE0FEE0FEE0F8C91E80FE0939704809167
:100F60009804E81701F1F0E0EE0FFF1FE551FA4F8A
:100F7000808191819093A3048093A20480919B042B
:100F800090919C04A0919D04B0919E040196A11D96
:100F9000B11D80939B0490939C04A0939D04B093F7
:100FA0009E040E947A06789408958091920481307C
:100FB00049F4F894809191048F3F19F08F5F8093EA
:100FC00091047894089580919204811128C0E09151
:100FD000A404F0E0E050FF4FE081AE2FB0E0AB554D
:100FE000BB4FAC91B0E0A050BF4FEE0FEE0FEE0F35
:100FF0008C91E80FE0939704E0939804F0E0EE0FF3
:10100000FF1FE551FA4F808191819093A304809353
:10101000A2049093AB048093AA040C94ED05089568
:101020000E945A0780919204E0919904F0919A04E9
:1010300021E030E0813001F10895F89486819781B4
:101040000097B1F0019797838683892B89F4808577
:1010500083FD16C08091A4049585892B8093A404F8
:10106000A385B0E0AB55BB4F8C919485892B8C93B5
:101070000280F381E02D789481858031F1F6DCCF18
:1010800037832683F5CF8CEF90E008950895F89488
:101090008091A90481113DC080919104811139C0D2
:1010A000E091A404F0E0E050FF4FE081AE2FB0E00B
:1010B000AB55BB4FAC91B0E0A050BF4FEE0FEE0F61
:1010C000EE0F8C91E80FE093970480919804E81755
:1010D00001F1F0E0EE0FFF1FE551FA4F80819181A1
:1010E0009093A3048093A20480919B0490919C040C
:1010F000A0919D04B0919E040196A11DB11D809305
:101100009B0490939C04A0939D04B0939E040E9422
:101110001D067894089580919204813091F4F8949A
:1011200080919104882361F0815080939104811112
:1011300007C08091A904811103C078940C944708DA
:1011400078940895AC01F894A091AA04B091AB04EE
:101150001B96EC911B97F0E01C969C911C97909528
:10116000EB55FB4F80819823908391110AC01D9607
:101170009C911D97292F20959091A40492239093E0
:10118000A40417965C934E93169778940C94470892
:101190001F93CF93DF93F894C0919F04D091A00444
:1011A000209709F454C0182F8A819B819093A00442
:1011B00080939F04789479836883198718861F82A7
:1011C0001E821E86E12FE695E695E695EB87F0E018
:1011D000E050FE4F80818D87E12FE770EA87F0E0D5
:1011E000E050FE4F80818C87CE010E945E07CE01C9
:1011F0000E945607F894E12FF0E0EE0FFF1FE55133
:10120000FA4FD183C083E0919904F0919A04FB8353
:10121000EA831D821C82309711F0D583C483D0935A
:101220009A04C09399048091A4049D85892B80938E
:10123000A404EB85F0E0EB55FB4F80819C85892B66
:101240008083789480E0DF91CF911F910895789406
:1012500086E4F9CF9F92AF92BF92CF92DF92EF9246
:10126000FF920F931F93CF93DF93F894C22FD0E098
:10127000CC0FDD1FC551DA4FE881F981EF2B09F062
:101280003BC0922E21E030E039832883789430E00F
:1012900020E00E940C07B12CA12CD12CC12CE12CF8
:1012A000F12C870130E020E050E040E0BC01892DC6
:1012B0000E94C808182F81111AC0F8948091A104C7
:1012C0008F5F8093A104789480919204813011F40F
:1012D0000E944708812FDF91CF911F910F91FF90BE
:1012E000EF90DF90CF90BF90AF909F900895F894CB
:1012F000198218827894EECF789418E2EBCF0E948E
:101300005B071092A904109291041092A10410920C
:10131000920410929B0410929C0410929D041092CF
:101320009E041092930410929404109295041092CB
:1013300096041092A4041092A5041092A604109290
:10134000A70410929804109297041092A30410928C
:10135000A2041092AB041092AA0410929A04109264
:101360009904EBEEF5E01192119286E0ED30F8076A
:10137000D1F7ECEEF4E0CF010F9693838283FC016A
:1013800085E0EC3DF807B9F71092DF051092DE0515
:101390008CEE94E09093A00480939F0420E14BEEA8
:1013A00054E070E060E08FE597E00E942A090C9419
:1013B0005C07FF920F931F93CF93DF93F090A904E4
:1013C000F11076C0F8948F3F29F4E091AA04F091CF
:1013D000AB048185082F10E0000F111FF801E551C3
:1013E000FA4FC081D181209709F45EC0EB85F0E00F
:1013F0008C858095EB55FB4F9081892380838111EB
:1014000008C08D85982F90958091A404892380939E
:10141000A4041F821E821886809191048F3F19F0C8
:101420008F5F809391047894F8948091910488233D
:1014300019F0815080939104CE010E94570780914A
:10144000A10481508093A104F801E551FA4F118263
:101450001082EC81FD81AA81BB813097E1F4159661
:101460001C921E921497B0939A04A09399048091B1
:101470009F049091A0049B838A83D093A004C0937F
:101480009F0478940E9447088F2DDF91CF911F9180
:101490000F91FF900895B383A283AA81BB81159613
:1014A000FC93EE931497E3CF78949CE3F92EECCF62
:1014B0008FE3F82EE9CF8F3F41F4F894E091AA042E
:1014C000F091AB04868578940895F894E82FF0E0C5
:1014D000EE0FFF1FE551FA4F0190F081E02D8BE0F8
:1014E000309789F38EE3868780E0EDCF009711F087
:1014F0000C94A2080895CF92DF92EF92FF9281118F
:101500000DC061110BC041110CC02115310561F4F2
:1015100084E5FF90EF90DF90CF9008956C3308F052
:101520004FC04C3308F04EC0283E93E0390708F016
:101530004BC0F901582F262F30E0ACE3B0E00E94F9
:10154000B20B6B017C01C40ED11CE11CF11C252FD8
:1015500030E0A0E1BEE00E94B20BA7019601260F89
:10156000371F481F591FA4E6B0E00E94C10B6B0152
:101570007C019F010E94B20B6C507E4F8F4F9F4F9A
:1015800028EE33E040E050E00E948A0BD701C6010C
:10159000820F931FA41FB51F7D010E94760AE114DC
:1015A000F10411F480E0B5CF80E090E80E94A20839
:1015B00080E090E80E94A20881E0E81AF108EFCFED
:1015C00081E5A7CF82E5A5CF83E5A3CF0E943105B2
:1015D0000E947F0970E060E090E080E00E94540487
:1015E0001092E1021092E0021092E3021092E202E5
:1015F0001092E40284EF9DEFA4E5BDE38093E50241
:101600009093E602A093E702B093E80281E398E0AA
:10161000ACE2BDE38093E9029093EA02A093EB026F
:10162000B093EC028CEA95ECA7EAB7E38093ED0265
:101630009093EE02A093EF02B093F0021092F102A9
:101640001092F2021092F3021092F4021092F5023C
:101650001092F6021092F7021092F8021092FC0219
:101660001092FB021092FE021092FD0210920003F3
:101670001092FF02109202031092010310920403D1
:1016800010920303109206031092050381E090E08C
:10169000909308038093070388EE93E09093FA02F7
:1016A0008093F90221E048E054E070E060E08DE8CA
:1016B00090E00E942A090E94F7040E941D050E94E2
:1016C000E307FFCFAA1BBB1B51E107C0AA1FBB1F2B
:1016D000A617B70710F0A61BB70B881F991F5A95BE
:1016E000A9F780959095BC01CD01089597FB072E31
:1016F00016F4009407D077FD09D00E94620B07FC16
:1017000005D03EF4909581959F4F08957095619511
:101710007F4F0895A1E21A2EAA1BBB1BFD010DC02D
:10172000AA1FBB1FEE1FFF1FA217B307E407F50791
:1017300020F0A21BB30BE40BF50B661F771F881F6D
:10174000991F1A9469F760957095809590959B0103
:10175000AC01BD01CF010895EE0FFF1F0590F4917C
:10176000E02D0994A29FB001B39FC001A39F700D0B
:10177000811D1124911DB29F700D811D1124911D99
:1017800008950E94B20BA59F900DB49F900DA49F49
:10179000800D911D112408955058BB27AA270E943F
:1017A000E40B0C94C30C0E94B50C38F00E94BC0CE6
:1017B00020F039F49F3F19F426F40C94B20C0EF487
:1017C000E095E7FB0C94AC0CE92F0E94D40C58F385
:1017D000BA17620773078407950720F079F4A6F516
:1017E0000C94F60C0EF4E0950B2EBA2FA02D0B01E5
:1017F000B90190010C01CA01A0011124FF27591B56
:1018000099F0593F50F4503E68F11A16F040A22F5B
:10181000232F342F4427585FF3CF469537952795CC
:10182000A795F0405395C9F77EF41F16BA0B620BCB
:10183000730B840BBAF09150A1F0FF0FBB1F661F12
:10184000771F881FC2F70EC0BA0F621F731F841F55
:1018500048F4879577956795B795F7959E3F08F07B
:10186000B0CF9395880F08F09927EE0F979587953D
:1018700008950E94400C6894B1110C94F70C0895DF
:101880000E94DC0C88F09F5798F0B92F9927B75128
:10189000B0F0E1F0660F771F881F991F1AF0BA9514
:1018A000C9F714C0B13091F00E94F60CB1E0089570
:1018B0000C94F60C672F782F8827B85F39F0B93F62
:1018C000CCF3869577956795B395D9F73EF49095C7
:1018D0008095709561957F4F8F4F9F4F0895E89445
:1018E00009C097FB3EF490958095709561957F4F68
:1018F0008F4F9F4F9923A9F0F92F96E9BB27939516
:10190000F695879577956795B795F111F8CFFAF425
:10191000BB0F11F460FF1BC06F5F7F4F8F4F9F4F56
:1019200016C0882311F096E911C0772321F09EE8B4
:10193000872F762F05C0662371F096E8862F70E01A
:1019400060E02AF09A95660F771F881FDAF7880FF4
:101950009695879597F9089597F99F6780E870E0C5
:1019600060E008959FEF80EC089500240A94161615
:10197000170618060906089500240A94121613067D
:10198000140605060895092E0394000C11F488230B
:1019900052F0BB0F40F4BF2B11F460FF04C06F5F27
:1019A0007F4F8F4F9F4F089557FD9058440F551FFD
:1019B00059F05F3F71F04795880F97FB991F61F0D1
:1019C0009F3F79F087950895121613061406551F48
:1019D000F2CF4695F1DF08C0161617061806991FB4
:1019E000F1CF86957105610508940895E894BB27A9
:1019F00066277727CB0197F908950E94100D0C9464
:101A0000C30C0E94B50C38F00E94BC0C20F095234A
:101A100011F00C94AC0C0C94B20C11240C94F70C37
:101A20000E94D40C70F3959FC1F3950F50E0551FA1
:101A3000629FF001729FBB27F00DB11D639FAA2723
:101A4000F00DB11DAA1F649F6627B00DA11D661F72
:101A5000829F2227B00DA11D621F739FB00DA11D93
:101A6000621F839FA00D611D221F749F3327A00D4D
:101A7000611D231F849F600D211D822F762F6A2FE9
:101A800011249F5750409AF0F1F088234AF0EE0F4E
:101A9000FF1FBB1F661F771F881F91505040A9F77B
:101AA0009E3F510580F00C94AC0C0C94F70C5F3FFA
:101AB000E4F3983ED4F3869577956795B795F795B7
:101AC000E7959F5FC1F7FE2B880F911D969587952F
:081AD00097F90895F894FFCF87
:101AD80000000100020001000300010002000100F3
:101AE80004000100020001000300010002000100DF
:101AF80005000100020001000300010002000100CE
:101B080004000100020001000300010002000100BE
:101B180006000100020001000300010002000100AC
:101B2800040001000200010003000100020001009E
:101B3800050001000200010003000100020001008D
:101B4800040001000200010003000100020001007E
:101B5800070001000200010003000100020001006B
:101B6800040001000200010003000100020001005E
:101B7800050001000200010003000100020001004D
:101B8800040001000200010003000100020001003E
:101B9800060001000200010003000100020001002C
:101BA800040001000200010003000100020001001E
:101BB800050001000200010003000100020001000D
:101BC80004000100020001000300010002000100FE
:101BD8000102040810204080303132333435363762
:101BE8003839414243444546004F62737461636C1F
:101BF800652044657465637465640A004374726C97
:101C0800204D6F746F72730A005461736B205374A4
:101C18006172740A004E617669676174650A004CE6
:101C2800696768742044657465637465640A0000B4
:00000001FF
