:100000000C9434000C9451000C9451000C94510049
:100010000C9451000C9451000C9451000C9451001C
:100020000C9451000C9451000C9451000C9451000C
:100030000C9451000C9451000C9451000C945100FC
:100040000C949F060C9451000C9451000C94510098
:100050000C9451000C9451000C9451000C945100DC
:100060000C9451000C94510011241FBECFEFD8E026
:10007000DEBFCDBF12E0A0E0B1E0ECEBFAE102C0E0
:1000800005900D92A235B107D9F725E0A2E5B2E0BF
:1000900001C01D92AF3FB207E1F70E94D80A0C944D
:1000A0005C0D0C940000C9E1D2E011E00E94A104B3
:1000B000019781F4DF93CF930E943F051093D602FE
:1000C0000F900F902FE030E040E060E080E00E9471
:1000D0006D0AECCF1092D602F5CF6091D2027091EA
:1000E000D3028091D4029091D5020E94460424E16B
:1000F00030E040E060E080E00E946D0AEECF8CE2EC
:1001000092E09F938F930E943F050E94140522E086
:100110004AE754E070E060E08EE791E00E941C093D
:1001200022E041ED52E070E060E083E590E00E9463
:100130001C0922E04AE753E070E060E08DE690E0C1
:100140000E941C090F900F9030E020E045E060E035
:1001500080E00E946D0AF8CF861797072CF0BC014B
:10016000481759070CF4BA01CB01089597FF03C053
:1001700091958195910908954F925F926F927F9228
:100180008F929F92AF92BF92CF92DF92EF92FF92A7
:100190002091F5023091F6022130310561F448EBEF
:1001A0005EE165E87DE34093D7025093D802609307
:1001B000D9027093DA026091EB027091EC02681B35
:1001C000790B072E000C880B990B0E94630C6B01B6
:1001D0007C012091E7023091E8024091E9025091C0
:1001E000EA020E94BF0B4B015C018092E7029092F1
:1001F000E802A092E902B092EA022091D70230917F
:10020000D8024091D9025091DA02C701B6010E948A
:10021000EF0C2B013C012091DF023091E002409174
:10022000E1025091E202C501B4010E94EF0C9B0172
:10023000AC01C301B2010E94BF0B4B015C012091D4
:10024000E3023091E4024091E5025091E602C701D9
:10025000B6010E94BE0B2091DB023091DC0240917E
:10026000DD025091DE020E94EF0C9B01AC01C50142
:10027000B4010E94BF0B0E942B0CC092E302D092EB
:10028000E402E092E502F092E60229E130E0261B6A
:10029000370B2536310514F024E630E02C394FEFCA
:1002A000340714F42CE93FEF3093D5022093D402A5
:1002B000675E7F4F6536710514F064E670E06C3957
:1002C0008FEF780714F46CE97FEF7093D30260939B
:1002D000D2023093EE022093ED027093F00260930D
:1002E000EF02FF90EF90DF90CF90BF90AF909F9084
:1002F0008F907F906F905F904F900895512C412C7C
:10030000C2EEDFEF01E410E06DEDE62EFF24FA947B
:100310007DE2672E712CE2E3CE2ED12CFEE18F2EF2
:10032000912CACE32A2E312C88E392E09F938F939B
:100330000E943F050E94AD045C010E9408050F90D9
:100340000F90882319F10E9408058111FCCF8FEFCF
:10035000481A580A95E04916510464F181E090E08A
:100360009093F8028093F7028091F7029091F8023F
:10037000019711F40E94E9048091F7029091F8022C
:10038000892B21F485B191E0892785B98091D60226
:10039000813009F04EC08091F5029091F6020197EC
:1003A00009F51092D5021092D4021092D302109245
:1003B000D202BACF8091F1029091F202892B69F4B6
:1003C0008091F7029091F802892B39F481E090E056
:1003D0009093F2028093F102C7CF1092F202109232
:1003E000F102C2CF1092F6021092F5021092F202C0
:1003F0001092F1029092D5028092D402D093D3024F
:10040000C093D20220E233E040E060E080E00E944E
:100410006D0A3092D5022092D4023092D3022092FB
:10042000D20220E233E041E060E080E00E946D0A09
:100430007BCF95E5A916B104CCF18091F50290919E
:10044000F602892B99F582E492E09F938F930E94A4
:100450003F051092F2021092F10281E090E0909339
:10046000F6028093F5029092D5028092D402909287
:10047000D3028092D20228E532E040E060E080E0E2
:100480000E946D0A8FEB9FEF9093D5028093D40268
:100490001093D3020093D20228EC30E040E060E0F9
:1004A00080E00E946D0A0F900F903ECFA090EB026B
:1004B000B090EC020E94C404FC012091F102309142
:1004C000F20221303105F9F4089708F047C0E559E8
:1004D000FD4F0C949E0BB702B7029C027302A6025A
:1004E0009C027E02B7025CEDA52E55E0B52EC5013B
:1004F0000E94BC0029E130E040E096CF44EFA42EFA
:10050000BB24B394F4CF2091F5023091F602213050
:10051000310591F525B131E0232725B90897F0F48D
:10052000EC56FD4F0C949E0B9C02B7029C02A1025C
:10053000A6029C02A9029C0238EEA32E33E0B32E41
:10054000D6CF24ECA22E29E0B22ED1CFB12CA12CF3
:10055000CECF9CE0A92E9EEFB92EC9CFD093D50265
:10056000C093D402D093D302C093D202C0CF80ED07
:10057000A82E87E0B82EBBCF2091F7023091F80269
:100580002130310509F03AC0089708F0AEC0E553B4
:10059000FD4F0C949E0BF50216030D031F0324035D
:1005A000D3023803EE028BE490E09093D50280935F
:1005B000D4029093D3028093D2028091D40290917E
:1005C000D5029093EE028093ED028091D202909139
:1005D000D3029093F0028093EF028CCF1093D50258
:1005E0000093D4028BE490E0E4CF9092D502809205
:1005F000D4023092D3022092D2027CCF089708F026
:1006000074C0EB5FFC4F0C949E0B440316030D0368
:100610001F0324032D0338033D03D092D502C0925B
:10062000D402D092D302C092D202C7CF7092D50228
:100630006092D402F092D302E092D202BECF109325
:10064000D5020093D402F6CFF092D502E092D40204
:100650007092D3026092D202B0CF8FEB9FEF909353
:10066000D5028093D4021093D3020093D202A5CF77
:10067000F092D502E092D402F6CF1093D502009307
:10068000D4028FEB9FEF95CF6091EF027091F00253
:10069000665F7F4F072E000C880B990B0E94630C3E
:1006A0002AE939E949E15FE30E94EF0C90580E9482
:1006B0002B0C7093D5026093D4026091ED0270917F
:1006C000EE02072E000C880B990B0E94630C2AE99E
:1006D00039E949E15FE30E94EF0C90580E942B0C2E
:1006E0007093D3026093D20205CFD093D502C0930A
:1006F000D402D093D302C093D2025FCF80E4809320
:100700007C0086E880937A000895F8948064809352
:100710007C0080917A00806480937A0080917A00D6
:1007200084FFFCCF80917A00806180937A00789476
:10073000809178009091790093700895811105C09F
:100740007093890060938800089570938B00609384
:100750008A0008958AB1806F8AB98BB18F708BB986
:1007600081EA8093800083E080938100109285006D
:100770001092840010928900A8E8B0E01C921092B8
:100780008B00EAE8F0E0108284B1866084B91196AB
:100790001C921E9211821082089577FF02C070E0B1
:1007A00060E06536710514F064E670E09B01220F8D
:1007B000331F75956795620F731F811109C0709380
:1007C0008B0060938A0070937C0460937B0408958F
:1007D00070938900609388007093800460937F0415
:1007E0000895CF93C62F262F30E081112BC0809122
:1007F0007D0490917E048217930759F070E060E0C9
:1008000080E00E94CD038FE99FE00197F1F700C0DF
:100810000000C1110EC05E985F9A10927E04109283
:100820007D048FE39CE90197F1F700C00000CF91B0
:1008300008955E9A5F9881E090E090937E048093A3
:100840007D04EFCF809181049091820482179307F9
:1008500059F070E060E081E00E94CD038FE99FE0F5
:100860000197F1F700C00000C11107C05C9A5D98C4
:100870001092820410928104D4CF5C985D9A81E03A
:1008800090E09093820480938104CBCF0F931F93C9
:10089000CF93DF93EC018B0197FF1CC061E081E0F7
:1008A0000E94F103D195C195D10917FF18C061E0ED
:1008B00080E00E94F103119501951109B80180E0D3
:1008C0000E94CD03BE0181E0DF91CF911F910F9176
:1008D0000C94CD0360E081E00E94F103E6CF60E07C
:1008E00080E00E94F103EACF8093C4001092C5001B
:1008F0001092C00088E18093C10086E08093C2001E
:1009000008959091C00095FFFCCF8093C600089594
:10091000CF938091C00087FFFCCFC091C6008C2F81
:100920000E9481048C2FCF910895CF93DF93EC0127
:100930008991811103C0DF91CF9108950E948104B4
:10094000F7CF80E00E94850321E030E084369105F6
:1009500010F030E020E0C901089584E00E94850392
:100960002BEFAC012403C001259F900D112485506D
:100970009C4E63E370E00E94680BCB016536710505
:1009800014F084E690E00895CF93DF93C0E0D1E0C7
:10099000CC0F8D2F0E9485038C3291400CF4C160E6
:1009A000DF5FD430A9F78C2F90E0DF91CF910895CD
:1009B00083B182958F7091E08927817090E00895CE
:1009C00083B186958695869591E08927817090E020
:1009D00008955B9A2FEF85EA9EE021508040904079
:1009E000E1F700C000005B982FEF85EA9EE0215000
:1009F00080409040E1F700C00000089585E00E942B
:100A00008503843F914010F4289A0895289808950A
:100A100089B182FB882780F991E0892708950E9497
:100A200008058823E1F30895F89485E085BD81E009
:100A300080936E0084E686BD7894089587E60E94D0
:100A400074040C947E030E941E050E94AA03539A0C
:100A50005B98209A52985A9A2498239885B1886175
:100A600085B960E080E00E94F10360E081E00E94CF
:100A7000F10370E060E090E080E00C9446044F9257
:100A80005F926F927F928F929F92AF92BF92CF921E
:100A9000DF92EF92FF920F931F93CF93DF93CDB727
:100AA000DEB7DE015396ED91FD918D015AE0652E82
:100AB000712C8081853281F45F0182E0A80EB11C27
:100AC0008181843609F450C090F4833661F4F801D2
:100AD00080810E5F1F4F07C0882309F45DC05F014E
:100AE0009FEFA91AB90A0E948104F501E2CF83376A
:100AF00071F130E1832E912CE12C40E1F42E883706
:100B000091F7F801C080D1800E5F1F4F843659F4F1
:100B1000D7FE06C0D194C194D1088DE20E94810411
:100B2000CE14DF0448F1C601B7010E94540B2C011A
:100B3000685F7D4FFB0180810E9481046201C701D3
:100B4000B4010E94540B7B01672B69F7CECFF801EB
:100B5000E080F1800E5F1F4FF70181917F018823B4
:100B600021F20E948104F8CF9AE0892E912C20E195
:100B7000E22E27E2F22EC5CFC701B3010E94540B2B
:100B80007B016230710560F6C6010E94540BFB01C7
:100B9000E85FFD4F8081A7CF90E080E0DF91CF91AB
:100BA0001F910F91FF90EF90DF90CF90BF90AF908B
:100BB0009F908F907F906F905F904F9008950091DD
:100BC0008404039500938404E0919404F0919504C7
:100BD000C191CDBFD191DEBF0F910FBFFF91EF91BA
:100BE000DF91CF91BF91AF919F918F917F916F9145
:100BF0005F914F913F912F911F910F91FF90EF9037
:100C0000DF90CF90BF90AF909F908F907F906F902C
:100C10005F904F903F902F901F900F9008950F92EC
:100C20001F922F923F924F925F926F927F928F927C
:100C30009F92AF92BF92CF92DF92EF92FF920F936B
:100C40001F932F933F934F935F936F937F938F9354
:100C50009F93AF93BF93CF93DF93EF93FF930FB720
:100C60000F93E0919C04F0919D04CDB7C193DEB742
:100C7000D1930091890400938A04E0919404F09147
:100C80009504E0939C04F0939D04C191CDBFD19154
:100C9000DEBF0F910FBFFF91EF91DF91CF91BF9119
:100CA000AF919F918F917F916F915F914F913F9104
:100CB0002F911F910F91FF90EF90DF90CF90BF90F9
:100CC000AF909F908F907F906F905F904F903F90EC
:100CD0002F901F900F9008950091890400938A042B
:100CE000E0919404F0919504E0939C04F0939D04AA
:100CF000C191CDBFD191DEBF0F910FBFFF91EF9199
:100D0000DF91CF91BF91AF919F918F917F916F9123
:100D10005F914F913F912F911F910F91FF90EF9015
:100D2000DF90CF90BF90AF909F908F907F906F900B
:100D30005F904F903F902F901F900F9008950F92CB
:100D40001F922F923F924F925F926F927F928F925B
:100D50009F92AF92BF92CF92DF92EF92FF920F934A
:100D60001F932F933F934F935F936F937F938F9333
:100D70009F93AF93BF93CF93DF93EF93FF930FB7FF
:100D800000680F9300919B04039500939B0401302E
:100D900041F4CDB7DEB7E0919C04F0919D04C1937E
:100DA000D19304E606BDF0E01F2E78940E9402085D
:100DB00000000E9475070F910FBFFF91EF91DF9127
:100DC000CF91BF91AF919F918F917F916F915F91E3
:100DD0004F913F912F911F910F91FF90EF90DF90D6
:100DE000CF90BF90AF909F908F907F906F905F90CB
:100DF0004F903F902F901F900F900895FA0180839D
:100E000031979083319710823197108231971082F9
:100E1000319710823197108231971082319710826A
:100E2000319710823197108231971082319710825A
:100E3000319710823197108231971082319710824A
:100E4000319710823197108231971082319710823A
:100E5000319710823197108231971082319710822A
:100E60003197108231976083319770833197108268
:100E7000319710823197108231971082319710820A
:100E800031971082319780E88083CA018397089553
:100E9000089508950895089508950895089508956A
:100EA0000895F8948091850490918604A091870418
:100EB000B09188040196A11DB11D80938504909383
:100EC0008604A0938704B093880478940E944F0707
:100ED000E8CF80918404813039F480919B048F3F66
:100EE00019F08F5F80939B04089580918404813072
:100EF00009F04CC0F89480919B04882319F081502C
:100F000080939B0480919B0481113FC08091830456
:100F100081113BC0E0919604F0E0E050FF4FE0818A
:100F2000E0939A04AE2FB0E0A956BB4FAC91B0E06D
:100F3000A050BF4FEE0FEE0FEE0F8C91E80FE09335
:100F4000890480918A04E81701F1F0E0EE0FFF1F99
:100F5000E352FA4F80819181909395048093940499
:100F600080918D0490918E04A0918F04B091900493
:100F70000196A11DB11D80938D0490938E04A093C2
:100F80008F04B09390040E946C0678940895809129
:100F90008404813049F4F894809183048F3F19F0E0
:100FA0008F5F8093830478940895809184048111E5
:100FB00028C0E0919604F0E0E050FF4FE081AE2FB2
:100FC000B0E0A956BB4FAC91B0E0A050BF4FEE0FC0
:100FD000EE0FEE0F8C91E80FE0938904E0938A0402
:100FE000F0E0EE0FFF1FE352FA4F80819181909362
:100FF00095048093940490939D0480939C040C9496
:10100000DF0508950E944C0780918404E0918B04D1
:10101000F0918C0421E030E0813001F10895F894E2
:10102000868197810097B1F0019797838683892BFA
:1010300089F4808583FD16C0809196049585892B5F
:1010400080939604A385B0E0A956BB4F8C919485FC
:10105000892B8C930280F381E02D789481858031F7
:10106000F1F6DCCF37832683F5CF8CEF90E008953F
:101070000895F89480919B0481113DC08091830470
:10108000811139C0E0919604F0E0E050FF4FE0811B
:10109000AE2FB0E0A956BB4FAC91B0E0A050BF4F0F
:1010A000EE0FEE0FEE0F8C91E80FE0938904809124
:1010B0008A04E81701F1F0E0EE0FFF1FE352FA4F48
:1010C00080819181909395048093940480918D0404
:1010D00090918E04A0918F04B09190040196A11D6F
:1010E000B11D80938D0490938E04A0938F04B093D0
:1010F00090040E940F0678940895809184048130B2
:1011000091F4F89480918304882361F08150809356
:101110008304811107C080919B04811103C07894DE
:101120000C94390878940895AC01F894A0919C042B
:10113000B0919D041B96EC911B97F0E01C969C913E
:101140001C979095E956FB4F8081982390839111CD
:101150000AC01D969C911D97292F20959091960469
:1011600092239093960417965C934E9316977894D7
:101170000C9439081F93CF93DF93F894C091910496
:10118000D0919204209709F454C0182F8A819B8132
:10119000909392048093910478947983688319875B
:1011A00018861F821E821E86E12FE695E695E6953B
:1011B000EB87F0E0E050FE4F80818D87E12FE770F4
:1011C000EA87F0E0E050FE4F80818C87CE010E94DC
:1011D0005007CE010E944807F894E12FF0E0EE0F8F
:1011E000FF1FE352FA4FD183C083E0918B04F0914B
:1011F0008C04FB83EA831D821C82309711F0D58317
:10120000C483D0938C04C0938B04809196049D85F5
:10121000892B80939604EB85F0E0E956FB4F8081A3
:101220009C85892B8083789480E0DF91CF911F91FA
:101230000895789486E4F9CF9F92AF92BF92CF92AF
:10124000DF92EF92FF920F931F93CF93DF93F89467
:10125000C22FD0E0CC0FDD1FC352DA4FE881F981F5
:10126000EF2B09F03BC0922E21E030E03983288338
:10127000789430E020E00E94FE06B12CA12CD12C05
:10128000C12CE12CF12C870130E020E050E040E05F
:10129000BC01892D0E94BA08182F81111AC0F89438
:1012A000809193048F5F8093930478948091840459
:1012B000813011F40E943908812FDF91CF911F9165
:1012C0000F91FF90EF90DF90CF90BF90AF909F90E5
:1012D0000895F894198218827894EECF789418E2E1
:1012E000EBCF0E944D0710929B0410928304109242
:1012F00093041092840410928D0410928E04109224
:101300008F0410929004109285041092860410921B
:1013100087041092880410929604109297041092F9
:1013200098041092990410928A04109289041092E1
:1013300095041092940410929D0410929C041092B3
:101340008C0410928B04EDEDF5E01192119285E082
:10135000EF3FF807D1F7EEEDF4E0CF010F9693835E
:101360008283FC0185E0EE3CF807B9F71092D105C5
:101370001092D0058EED94E09093920480939104A6
:1013800020E14DED54E070E060E081E597E00E94DF
:101390001C090C944E07FF920F931F93CF93DF937A
:1013A000F0909B04F11076C0F8948F3F29F4E091FF
:1013B0009C04F0919D048185082F10E0000F111FFF
:1013C000F801E352FA4FC081D181209709F45EC041
:1013D000EB85F0E08C858095E956FB4F9081892361
:1013E0008083811108C08D85982F909580919604F7
:1013F0008923809396041F821E821886809183041D
:101400008F3F19F08F5F809383047894F8948091D4
:101410008304882319F0815080938304CE010E94B5
:10142000490780919304815080939304F801E3521B
:10143000FA4F11821082EC81FD81AA81BB81309725
:10144000E1F415961C921E921497B0938C04A0930D
:101450008B0480919104909192049B838A83D09312
:101460009204C093910478940E9439088F2DDF91E3
:10147000CF911F910F91FF900895B383A283AA810A
:10148000BB811596FC93EE931497E3CF78949CE37D
:10149000F92EECCF8FE3F82EE9CF8F3F41F4F8948B
:1014A000E0919C04F0919D04868578940895F894C9
:1014B000E82FF0E0EE0FFF1FE352FA4F0190F081AA
:1014C000E02D8BE0309789F38EE3868780E0EDCFC7
:1014D000009711F00C9494080895CF92DF92EF9248
:1014E000FF9281110DC061110BC041110CC021157B
:1014F000310561F484E5FF90EF90DF90CF9008957F
:101500006C3308F04FC04C3308F04EC0283E93E0D7
:10151000390708F04BC0F901582F262F30E0ACE313
:10152000B0E00E94A40B6B017C01C40ED11CE11C35
:10153000F11C252F30E0A0E1BEE00E94A40BA70122
:101540009601260F371F481F591FA4E6B0E00E94DE
:10155000B30B6B017C019F010E94A40B6C507E4F6A
:101560008F4F9F4F28EE33E040E050E00E947C0B0D
:10157000D701C601820F931FA41FB51F7D010E94D2
:10158000680AE114F10411F480E0B5CF80E090E83E
:101590000E94940880E090E80E94940881E0E81A94
:1015A000F108EFCF81E5A7CF82E5A5CF83E5A3CFF3
:1015B0000E9423050E94710970E060E090E080E0E5
:1015C0000E9446041092D3021092D2021092D502C9
:1015D0001092D4021092D60284EF9DEFA4E5BDE3F1
:1015E0008093D7029093D802A093D902B093DA02E5
:1015F00081E398E0ACE2BDE38093DB029093DC02F0
:10160000A093DD02B093DE028CEA95ECA7EAB7E383
:101610008093DF029093E002A093E102B093E20294
:101620001092E3021092E4021092E5021092E60298
:101630001092E7021092E8021092E9021092EA0278
:101640001092EE021092ED021092F0021092EF0250
:101650001092F2021092F1021092F4021092F30230
:101660001092F6021092F5021092F8021092F70210
:1016700081E090E09093FA028093F90288EE93E083
:101680009093EC028093EB0221E04AEF53E070E08C
:1016900060E08FE790E00E941C090E94E9040E942C
:1016A0000F050E94D507FFCFAA1BBB1B51E107C046
:1016B000AA1FBB1FA617B70710F0A61BB70B881FE2
:1016C000991F5A95A9F780959095BC01CD01089571
:1016D00097FB072E16F4009407D077FD09D00E94DF
:1016E000540B07FC05D03EF4909581959F4F0895CB
:1016F000709561957F4F0895A1E21A2EAA1BBB1B1E
:10170000FD010DC0AA1FBB1FEE1FFF1FA217B307CD
:10171000E407F50720F0A21BB30BE40BF50B661FE3
:10172000771F881F991F1A9469F7609570958095A7
:1017300090959B01AC01BD01CF010895EE0FFF1FF5
:101740000590F491E02D0994A29FB001B39FC001D0
:10175000A39F700D811D1124911DB29F700D811DDD
:101760001124911D08950E94A40BA59F900DB49F74
:10177000900DA49F800D911D112408955058BB27F2
:10178000AA270E94D60B0C94B50C0E94A70C38F027
:101790000E94AE0C20F039F49F3F19F426F40C940B
:1017A000A40C0EF4E095E7FB0C949E0CE92F0E942C
:1017B000C60C58F3BA17620773078407950720F021
:1017C00079F4A6F50C94E80C0EF4E0950B2EBA2FE4
:1017D000A02D0B01B90190010C01CA01A001112437
:1017E000FF27591B99F0593F50F4503E68F11A16E3
:1017F000F040A22F232F342F4427585FF3CF469574
:1018000037952795A795F0405395C9F77EF41F1695
:10181000BA0B620B730B840BBAF09150A1F0FF0F5F
:10182000BB1F661F771F881FC2F70EC0BA0F621F4B
:10183000731F841F48F4879577956795B795F7953B
:101840009E3F08F0B0CF9395880F08F09927EE0FD0
:101850009795879508950E94320C6894B1110C9465
:10186000E90C08950E94CE0C88F09F5798F0B92F8C
:101870009927B751B0F0E1F0660F771F881F991FC5
:101880001AF0BA95C9F714C0B13091F00E94E80C73
:10189000B1E008950C94E80C672F782F8827B85F83
:1018A00039F0B93FCCF3869577956795B395D9F71D
:1018B0003EF490958095709561957F4F8F4F9F4F27
:1018C0000895E89409C097FB3EF490958095709533
:1018D00061957F4F8F4F9F4F9923A9F0F92F96E97C
:1018E000BB279395F695879577956795B795F111F1
:1018F000F8CFFAF4BB0F11F460FF1BC06F5F7F4F8E
:101900008F4F9F4F16C0882311F096E911C077239F
:1019100021F09EE8872F762F05C0662371F096E8A8
:10192000862F70E060E02AF09A95660F771F881F77
:10193000DAF7880F9695879597F9089597F99F6735
:1019400080E870E060E008959FEF80EC0895002447
:101950000A941616170618060906089500240A9414
:1019600012161306140605060895092E0394000C9A
:1019700011F4882352F0BB0F40F4BF2B11F460FF29
:1019800004C06F5F7F4F8F4F9F4F089557FD905852
:10199000440F551F59F05F3F71F04795880F97FB33
:1019A000991F61F09F3F79F08795089512161306ED
:1019B0001406551FF2CF4695F1DF08C0161617061C
:1019C0001806991FF1CF8695710561050894089551
:1019D000E894BB2766277727CB0197F908950E94E3
:1019E000020D0C94B50C0E94A70C38F00E94AE0CAE
:1019F00020F0952311F00C949E0C0C94A40C11244F
:101A00000C94E90C0E94C60C70F3959FC1F3950FDE
:101A100050E0551F629FF001729FBB27F00DB11D72
:101A2000639FAA27F00DB11DAA1F649F6627B00D02
:101A3000A11D661F829F2227B00DA11D621F739FEB
:101A4000B00DA11D621F839FA00D611D221F749FF9
:101A50003327A00D611D231F849F600D211D822F40
:101A6000762F6A2F11249F5750409AF0F1F0882367
:101A70004AF0EE0FFF1FBB1F661F771F881F915094
:101A80005040A9F79E3F510580F00C949E0C0C9499
:101A9000E90C5F3FE4F3983ED4F38695779567951C
:101AA000B795F795E7959F5FC1F7FE2B880F911DBE
:0C1AB0009695879597F90895F894FFCF5C
:101ABC00000001000200010003000100020001000F
:101ACC0004000100020001000300010002000100FB
:101ADC0005000100020001000300010002000100EA
:101AEC0004000100020001000300010002000100DB
:101AFC0006000100020001000300010002000100C9
:101B0C0004000100020001000300010002000100BA
:101B1C0005000100020001000300010002000100A9
:101B2C00040001000200010003000100020001009A
:101B3C000700010002000100030001000200010087
:101B4C00040001000200010003000100020001007A
:101B5C000500010002000100030001000200010069
:101B6C00040001000200010003000100020001005A
:101B7C000600010002000100030001000200010048
:101B8C00040001000200010003000100020001003A
:101B9C000500010002000100030001000200010029
:101BAC00040001000200010003000100020001001A
:101BBC00010204081020408030313233343536377E
:101BCC003839414243444546004F62737461636C3B
:101BDC00652044657465637465640A005461736BB5
:101BEC002053746172740A004E6176696761746582
:101BFC000A004C6967687420446574656374656495
:021C0C000A00CC
:00000001FF
