:100000000C9434000C9451000C9451000C94510049
:100010000C9451000C9451000C9451000C9451001C
:100020000C9451000C9451000C9451000C9451000C
:100030000C9451000C9451000C9451000C945100FC
:100040000C94F2040C9451000C9451000C94510047
:100050000C9451000C9451000C9451000C945100DC
:100060000C9451000C94510011241FBECFEFD8E026
:10007000DEBFCDBF12E0A0E0B1E0E2E4F7E102C0F4
:1000800005900D92AA31B107D9F725E0AAE1B2E0B7
:1000900001C01D92A13CB207E1F70E942B090C940C
:1000A0009F0B0C940000C1E00E94F402019751F4F0
:1000B000C0939E0224E630E040E060E080E00E94D1
:1000C000C008F2CF10929E02F5CF60919A02709113
:1000D0009B0280919C0290919D020E9499022AE0CD
:1000E00030E040E060E080E00E94C008EECF0E9477
:1000F000670322E049E952E070E060E083E590E0C8
:100100000E946F0723E04CE353E070E060E085E677
:1001100090E00E946F0724E04CE354E070E060E060
:1001200087E891E00E946F0730E020E045E060E062
:1001300080E00E94C008F8CF861797072CF0BC011A
:10014000481759070CF4BA01CB01089597FF03C073
:1001500091958195910908958F929F92AF92BF9248
:10016000CF92DF92EF92FF922091B9023091BA02C2
:1001700045E15EEA67EC7DE32130310521F04AE993
:1001800059E969E97DE340939F025093A00260938F
:10019000A1027093A2026091B3027091B402681B35
:1001A000790B072E000C880B990B0E94A60A6B0195
:1001B0007C012091AF023091B0024091B102509188
:1001C000B2020E94020A6093AF027093B002809361
:1001D000B1029093B2020E946E0A9B0177FF04C0A5
:1001E00022273327261B370B21363D466CF085B17D
:1001F00091E0892785B98091BB029091BC0201965C
:100200009093BC028093BB022091AF023091B00268
:100210004091B1025091B2026091A7027091A80280
:100220008091A9029091AA020E94320B4B015C01BD
:1002300020919F023091A0024091A1025091A20210
:10024000C701B6010E94320B9B01AC01C501B4018C
:100250000E94020A4B015C012091AB023091AC027A
:100260004091AD025091AE02C701B6010E94010A51
:100270002091A3023091A4024091A5025091A602C0
:100280000E94320B9B01AC01C501B4010E94020A1D
:100290000E946E0AC092AB02D092AC02E092AD0214
:1002A000F092AE0228E230E0261B370B25363105EE
:1002B00014F024E630E02C394FEF340714F42CE925
:1002C0003FEF30939D0220939C02685D7F4F65361F
:1002D000710514F064E670E06C398FEF780714F460
:1002E0006CE97FEF70939B0260939A023093B602A1
:1002F0002093B5027093B8026093B702FF90EF901D
:10030000DF90CF90BF90AF909F908F90089502EEB6
:100310001FEF80919E02813049F410929D0210924D
:100320009C0210929B0210929A02F3CFC091B302EA
:10033000D091B4020E94170384369105A9F0883049
:10034000910518F589559E4FFC010C94E109BF01F8
:10035000AF01CE01BC01BF01CE01C201CE01C0ED93
:10036000D7E0CE010E94AC002AE030E040E060E03F
:1003700080E00E94C008CDCFCCEDD5E0F2CFD0E038
:10038000C0E0EFCFC4EFD1E0ECCF10939D0200931B
:100390009C0210939B0200939A02E3CFC8EED3E035
:1003A000E0CF80E480937C0086E880937A00089513
:1003B000F894806480937C0080917A0080648093BC
:1003C0007A0080917A0084FFFCCF80917A0080616E
:1003D00080937A007894809178009091790093705E
:1003E0000895811105C07093890060938800089575
:1003F00070938B0060938A0008958AB1806F8AB9E8
:100400008BB18F708BB981EA8093800083E08093F9
:100410008100109285001092840010928900A8E853
:10042000B0E01C9210928B00EAE8F0E0108284B1F8
:10043000866084B911961C921E92118210820895D2
:1004400077FF02C070E060E06536710514F064E685
:1004500070E09B01220F331F75956795620F731F24
:10046000811109C070938B0060938A0070933E04E1
:1004700060933D04089570938900609388007093A1
:100480004204609341040895CF93C62F262F30E095
:1004900081112BC080913F049091400482179307F3
:1004A00059F070E060E080E00E9420028FE99FE058
:1004B0000197F1F700C00000C1110EC05E985F9A6D
:1004C0001092400410923F048FE39CE90197F1F7EA
:1004D00000C00000CF9108955E9A5F9881E090E09F
:1004E0009093400480933F04EFCF80914304909118
:1004F00044048217930759F070E060E081E00E94A5
:1005000020028FE99FE00197F1F700C00000C111C0
:1005100007C05C9A5D981092440410924304D4CFB3
:100520005C985D9A81E090E090934404809343044A
:10053000CBCF0F931F93CF93DF93EC018B0197FFEA
:100540001CC061E081E00E944402D195C195D109AF
:1005500017FF18C061E080E00E94440211950195E8
:100560001109B80180E00E942002BE0181E0DF9104
:10057000CF911F910F910C94200260E081E00E94C6
:100580004402E6CF60E080E00E944402EACF80931C
:10059000C4001092C5001092C00088E18093C10091
:1005A00086E08093C20008959091C00095FFFCCF33
:1005B0008093C6000895CF938091C00087FFFCCF41
:1005C000C091C6008C2F0E94D4028C2FCF91089529
:1005D000CF93DF93EC018991811103C0DF91CF911B
:1005E00008950E94D402F7CF80E00E94D80121E054
:1005F00030E08436910510F030E020E0C901089524
:1006000084E00E94D8012BEFAC012403C001259F98
:10061000900D112485509C4E63E370E00E94AB095D
:10062000CB016536710514F084E690E00895CF9310
:10063000DF93C0E0D1E0CC0F8D2F0E94D8018C3227
:1006400091400CF4C160DF5FD430A9F78C2F90E0AB
:10065000DF91CF91089583B182958F7091E08927C2
:10066000817090E0089583B186958695869591E096
:100670008927817090E008955B9A2FEF85EA9EE0CC
:10068000215080409040E1F700C000005B982FEFC0
:1006900085EA9EE0215080409040E1F700C00000D4
:1006A000089585E00E94D801843F914010F4289A73
:1006B00008952898089589B182FB882780F991E0F0
:1006C000892708950E945B038823E1F30895F89435
:1006D00085E085BD81E080936E0084E686BD7894D8
:1006E000089587E60E94C7020C94D1010E9471030D
:1006F0000E94FD01539A5B98209A52985A9A249826
:10070000239885B1886185B960E080E00E94440249
:1007100060E081E00E94440270E060E090E080E0F0
:100720000C9499024F925F926F927F928F929F9258
:10073000AF92BF92CF92DF92EF92FF920F931F93EF
:10074000CF93DF93CDB7DEB7DE015396ED91FD91E8
:100750008D015AE0652E712C8081853281F45F0114
:1007600082E0A80EB11C8181843609F450C090F457
:10077000833661F4F80180810E5F1F4F07C0882324
:1007800009F45DC05F019FEFA91AB90A0E94D40263
:10079000F501E2CF833771F130E1832E912CE12C0A
:1007A00040E1F42E883791F7F801C080D1800E5FC8
:1007B0001F4F843659F4D7FE06C0D194C194D10896
:1007C0008DE20E94D402CE14DF0448F1C601B701C5
:1007D0000E9497092C01685F7D4FFB0180810E9478
:1007E000D4026201C701B4010E9497097B01672B03
:1007F00069F7CECFF801E080F1800E5F1F4FF7015F
:1008000081917F01882321F20E94D402F8CF9AE0DF
:10081000892E912C20E1E22E27E2F22EC5CFC701CE
:10082000B3010E9497097B016230710560F6C60131
:100830000E949709FB01E85FFD4F8081A7CF90E000
:1008400080E0DF91CF911F910F91FF90EF90DF90AB
:10085000CF90BF90AF909F908F907F906F905F9060
:100860004F90089500914604039500934604E0914B
:100870005604F0915704C191CDBFD191DEBF0F91C5
:100880000FBFFF91EF91DF91CF91BF91AF919F91FA
:100890008F917F916F915F914F913F912F911F9118
:1008A0000F91FF90EF90DF90CF90BF90AF909F900F
:1008B0008F907F906F905F904F903F902F901F9000
:1008C0000F9008950F921F922F923F924F925F9236
:1008D0006F927F928F929F92AF92BF92CF92DF9250
:1008E000EF92FF920F931F932F933F934F935F933A
:1008F0006F937F938F939F93AF93BF93CF93DF9328
:10090000EF93FF930FB70F93E0915E04F0915F04B4
:10091000CDB7C193DEB7D19300914B0400934C0443
:10092000E0915604F0915704E0935E04F0935F0465
:10093000C191CDBFD191DEBF0F910FBFFF91EF915C
:10094000DF91CF91BF91AF919F918F917F916F91E7
:100950005F914F913F912F911F910F91FF90EF90D9
:10096000DF90CF90BF90AF909F908F907F906F90CF
:100970005F904F903F902F901F900F90089500919F
:100980004B0400934C04E0915604F0915704E0931B
:100990005E04F0935F04C191CDBFD191DEBF0F9192
:1009A0000FBFFF91EF91DF91CF91BF91AF919F91D9
:1009B0008F917F916F915F914F913F912F911F91F7
:1009C0000F91FF90EF90DF90CF90BF90AF909F90EE
:1009D0008F907F906F905F904F903F902F901F90DF
:1009E0000F9008950F921F922F923F924F925F9215
:1009F0006F927F928F929F92AF92BF92CF92DF922F
:100A0000EF92FF920F931F932F933F934F935F9318
:100A10006F937F938F939F93AF93BF93CF93DF9306
:100A2000EF93FF930FB700680F9300915D04039558
:100A300000935D04013041F4CDB7DEB7E0915E0470
:100A4000F0915F04C193D19304E606BDF0E01F2E40
:100A500078940E94550600000E94C8050F910FBFB0
:100A6000FF91EF91DF91CF91BF91AF919F918F91C6
:100A70007F916F915F914F913F912F911F910F91B6
:100A8000FF90EF90DF90CF90BF90AF909F908F90AE
:100A90007F906F905F904F903F902F901F900F909E
:100AA0000895FA01808331979083319710823197AE
:100AB00010823197108231971082319710823197CE
:100AC00010823197108231971082319710823197BE
:100AD00010823197108231971082319710823197AE
:100AE000108231971082319710823197108231979E
:100AF000108231971082319710823197108231978E
:100B0000108231971082319710823197608331972C
:100B1000708331971082319710823197108231970C
:100B200010823197108231971082319780E880834C
:100B3000CA01839708950895089508950895089522
:100B40000895089508950895F89480914704909128
:100B50004804A0914904B0914A040196A11DB11D19
:100B60008093470490934804A0934904B0934A04A7
:100B700078940E94A205E8CF80914604813039F430
:100B800080915D048F3F19F08F5F80935D0408951D
:100B900080914604813009F04CC0F89480915D0446
:100BA000882319F0815080935D0480915D04811148
:100BB0003FC08091450481113BC0E0915804F0E0B2
:100BC000E050FF4FE081E0935C04AE2FB0E0A75A05
:100BD000BB4FAC91B0E0A050BF4FEE0FEE0FEE0F49
:100BE0008C91E80FE0934B0480914C04E81701F1DD
:100BF000F0E0EE0FFF1FE156FA4F80819181909354
:100C000057048093560480914F0490915004A09112
:100C10005104B09152040196A11DB11D80934F045F
:100C200090935004A0935104B09352040E94BF04C7
:100C30007894089580914604813049F4F894809125
:100C400045048F3F19F08F5F809345047894089591
:100C500080914604811128C0E0915804F0E0E050F2
:100C6000FF4FE081AE2FB0E0A75ABB4FAC91B0E090
:100C7000A050BF4FEE0FEE0FEE0F8C91E80FE093F8
:100C80004B04E0934C04F0E0EE0FFF1FE156FA4FE7
:100C900080819181909357048093560490935F04D0
:100CA00080935E040C94320408950E949F05809105
:100CB0004604E0914D04F0914E0421E030E0813093
:100CC00001F10895F894868197810097B1F001971A
:100CD00097838683892B89F4808583FD16C0809154
:100CE00058049585892B80935804A385B0E0A75AB2
:100CF000BB4F8C919485892B8C930280F381E02DDE
:100D0000789481858031F1F6DCCF37832683F5CF67
:100D10008CEF90E008950895F89480915D0481111E
:100D20003DC080914504811139C0E0915804F0E044
:100D3000E050FF4FE081AE2FB0E0A75ABB4FAC911F
:100D4000B0E0A050BF4FEE0FEE0FEE0F8C91E80F0A
:100D5000E0934B0480914C04E81701F1F0E0EE0FB2
:100D6000FF1FE156FA4F8081918190935704809341
:100D7000560480914F0490915004A0915104B09179
:100D800052040196A11DB11D80934F04909350040D
:100D9000A0935104B09352040E9462047894089581
:100DA00080914604813091F4F89480914504882321
:100DB00061F0815080934504811107C080915D04EA
:100DC000811103C078940C948C0678940895AC013A
:100DD000F894A0915E04B0915F041B96EC911B9770
:100DE000F0E01C969C911C979095E75AFB4F8081F0
:100DF0009823908391110AC01D969C911D97292FCD
:100E000020959091580492239093580417965C93E0
:100E10004E93169778940C948C061F93CF93DF9380
:100E2000F894C0915304D0915404209709F454C00D
:100E3000182F8A819B819093540480935304789453
:100E400079836883198718861F821E821E86E12F88
:100E5000E695E695E695EB87F0E0E050FE4F808161
:100E60008D87E12FE770EA87F0E0E050FE4F808148
:100E70008C87CE010E94A305CE010E949B05F894A9
:100E8000E12FF0E0EE0FFF1FE156FA4FD183C08350
:100E9000E0914D04F0914E04FB83EA831D821C8295
:100EA000309711F0D583C483D0934E04C0934D0482
:100EB000809158049D85892B80935804EB85F0E040
:100EC000E75AFB4F80819C85892B8083789480E052
:100ED000DF91CF911F910895789486E4F9CF9F9286
:100EE000AF92BF92CF92DF92EF92FF920F931F9338
:100EF000CF93DF93F894C22FD0E0CC0FDD1FC15603
:100F0000DA4FE881F981EF2B09F03BC0922E21E006
:100F100030E039832883789430E020E00E94510546
:100F2000B12CA12CD12CC12CE12CF12C870130E06B
:100F300020E050E040E0BC01892D0E940D07182FF1
:100F400081111AC0F894809155048F5F80935504E5
:100F5000789480914604813011F40E948C06812F90
:100F6000DF91CF911F910F91FF90EF90DF90CF9085
:100F7000BF90AF909F900895F8941982188278944A
:100F8000EECF789418E2EBCF0E94A00510925D049A
:100F900010924504109255041092460410924F048A
:100FA000109250041092510410925204109247046F
:100FB000109248041092490410924A041092580466
:100FC0001092590410925A0410925B0410924C042F
:100FD00010924B04109257041092560410925F0422
:100FE00010925E0410924E0410924D04EFE9F5E069
:100FF0001192119285E0E13CF807D1F7E0EAF4E0C4
:10100000CF010F9693838283FC0185E0E039F807D6
:10101000B9F7109293051092920580EA94E09093AC
:1010200054048093530420E14FE954E070E060E001
:1010300084EA95E00E946F070C94A105FF920F933C
:101040001F93CF93DF93F0905D04F11076C0F89476
:101050008F3F29F4E0915E04F0915F048185082FB1
:1010600010E0000F111FF801E156FA4FC081D18145
:10107000209709F45EC0EB85F0E08C858095E75AF7
:10108000FB4F908189238083811108C08D85982F23
:101090009095809158048923809358041F821E8262
:1010A0001886809145048F3F19F08F5F8093450427
:1010B0007894F89480914504882319F081508093A6
:1010C0004504CE010E949C05809155048150809377
:1010D0005504F801E156FA4F11821082EC81FD812E
:1010E000AA81BB813097E1F415961C921E92149749
:1010F000B0934E04A0934D048091530490915404F6
:101100009B838A83D0935404C093530478940E94A1
:101110008C068F2DDF91CF911F910F91FF90089535
:10112000B383A283AA81BB811596FC93EE93149797
:10113000E3CF78949CE3F92EECCF8FE3F82EE9CF40
:101140008F3F41F4F894E0915E04F0915F0486854E
:1011500078940895F894E82FF0E0EE0FFF1FE15621
:10116000FA4F0190F081E02D8BE0309789F38EE308
:10117000868780E0EDCF009711F00C94E706089584
:10118000CF92DF92EF92FF9281110DC061110BC0DF
:1011900041110CC02115310561F484E5FF90EF90F9
:1011A000DF90CF9008956C3308F04FC04C3308F0B7
:1011B0004EC0283E93E0390708F04BC0F901582F84
:1011C000262F30E0ACE3B0E00E94E7096B017C0120
:1011D000C40ED11CE11CF11C252F30E0A0E1BEE0C3
:1011E0000E94E709A7019601260F371F481F591FC4
:1011F000A4E6B0E00E94F6096B017C019F010E9409
:10120000E7096C507E4F8F4F9F4F28EE33E040E050
:1012100050E00E94BF09D701C601820F931FA41F8F
:10122000B51F7D010E94BB08E114F10411F480E0B8
:10123000B5CF80E090E80E94E70680E090E80E9449
:10124000E70681E0E81AF108EFCF81E5A7CF82E554
:10125000A5CF83E5A3CF0E9476030E94C40770E068
:1012600060E090E080E00E94990210929B02109250
:101270009A0210929D0210929C0210929E028AE99C
:1012800099E9A9E9BDE380939F029093A002A093FE
:10129000A102B093A2028FE892ECA5EFBBE380938A
:1012A000A3029093A402A093A502B093A602109269
:1012B000A7021092A8021092A9021092AA021092FC
:1012C000AB021092AC021092AD021092AE021092DC
:1012D000AF021092B0021092B1021092B2021092BC
:1012E000B6021092B5021092B8021092B702109294
:1012F000BA021092B90281E090E09093BC02809310
:10130000BB0288EE93E09093B4028093B30221E095
:101310004CEB53E070E060E087E790E00E946F07DD
:101320000E943C030E9462030E942806FFCFAA1B72
:10133000BB1B51E107C0AA1FBB1FA617B70710F0C0
:10134000A61BB70B881F991F5A95A9F780959095F2
:10135000BC01CD01089597FB072E16F4009407D029
:1013600077FD09D00E94970907FC05D03EF49095BF
:1013700081959F4F0895709561957F4F0895A1E2E3
:101380001A2EAA1BBB1BFD010DC0AA1FBB1FEE1FFF
:10139000FF1FA217B307E407F50720F0A21BB30B4A
:1013A000E40BF50B661F771F881F991F1A9469F7C6
:1013B00060957095809590959B01AC01BD01CF0122
:1013C0000895EE0FFF1F0590F491E02D0994A29F60
:1013D000B001B39FC001A39F700D811D1124911D09
:1013E000B29F700D811D1124911D08950E94E7097F
:1013F000A59F900DB49F900DA49F800D911D112469
:1014000008955058BB27AA270E94190A0C94F80A7D
:101410000E94EA0A38F00E94F10A20F039F49F3F56
:1014200019F426F40C94E70A0EF4E095E7FB0C940B
:10143000E10AE92F0E94090B58F3BA1762077307F4
:101440008407950720F079F4A6F50C942B0B0EF485
:10145000E0950B2EBA2FA02D0B01B90190010C01C4
:10146000CA01A0011124FF27591B99F0593F50F4DC
:10147000503E68F11A16F040A22F232F342F442734
:10148000585FF3CF469537952795A795F04053952C
:10149000C9F77EF41F16BA0B620B730B840BBAF0FC
:1014A0009150A1F0FF0FBB1F661F771F881FC2F767
:1014B0000EC0BA0F621F731F841F48F4879577957B
:1014C0006795B795F7959E3F08F0B0CF9395880F35
:1014D00008F09927EE0F9795879508950E94750A51
:1014E0006894B1110C942C0B08950E94110B88F094
:1014F0009F5798F0B92F9927B751B0F0E1F0660FD8
:10150000771F881F991F1AF0BA95C9F714C0B13018
:1015100091F00E942B0BB1E008950C942B0B672FD8
:10152000782F8827B85F39F0B93FCCF38695779547
:101530006795B395D9F73EF4909580957095619530
:101540007F4F8F4F9F4F0895E89409C097FB3EF45B
:1015500090958095709561957F4F8F4F9F4F992300
:10156000A9F0F92F96E9BB279395F695879577957E
:101570006795B795F111F8CFFAF4BB0F11F460FF3E
:101580001BC06F5F7F4F8F4F9F4F16C0882311F096
:1015900096E911C0772321F09EE8872F762F05C0AA
:1015A000662371F096E8862F70E060E02AF09A9545
:1015B000660F771F881FDAF7880F9695879597F93A
:1015C000089597F99F6780E870E060E008959FEFC5
:1015D00080EC089500240A941616170618060906CA
:1015E000089500240A941216130614060506089599
:1015F000092E0394000C11F4882352F0BB0F40F421
:10160000BF2B11F460FF04C06F5F7F4F8F4F9F4F60
:10161000089557FD9058440F551F59F05F3F71F0E2
:101620004795880F97FB991F61F09F3F79F0879549
:101630000895121613061406551FF2CF4695F1DFD2
:1016400008C0161617061806991FF1CF8695710562
:10165000610508940895E894BB2766277727CB0196
:1016600097F908950E94450B0C94F80A0E94EA0A23
:1016700038F00E94F10A20F0952311F00C94E10A51
:101680000C94E70A11240C942C0B0E94090B70F3A4
:10169000959FC1F3950F50E0551F629FF001729F17
:1016A000BB27F00DB11D639FAA27F00DB11DAA1F26
:1016B000649F6627B00DA11D661F829F2227B00D73
:1016C000A11D621F739FB00DA11D621F839FA00DFE
:1016D000611D221F749F3327A00D611D231F849F4E
:1016E000600D211D822F762F6A2F11249F575040A5
:1016F0009AF0F1F088234AF0EE0FFF1FBB1F661F20
:10170000771F881F91505040A9F79E3F510580F0E8
:101710000C94E10A0C942C0B5F3FE4F3983ED4F355
:10172000869577956795B795F795E7959F5FC1F78C
:10173000FE2B880F911D9695879597F90895F8943B
:02174000FFCFD9
:10174200000001000200010003000100020001008C
:101752000400010002000100030001000200010078
:101762000500010002000100030001000200010067
:101772000400010002000100030001000200010058
:101782000600010002000100030001000200010046
:101792000400010002000100030001000200010038
:1017A2000500010002000100030001000200010027
:1017B2000400010002000100030001000200010018
:1017C2000700010002000100030001000200010005
:1017D20004000100020001000300010002000100F8
:1017E20005000100020001000300010002000100E7
:1017F20004000100020001000300010002000100D8
:1018020006000100020001000300010002000100C5
:1018120004000100020001000300010002000100B7
:1018220005000100020001000300010002000100A6
:101832000400010002000100030001000200010097
:1018420001020408102040803031323334353637FB
:0A1852003839414243444546000086
:00000001FF
