:100000000C9434000C9451000C9451000C94510049
:100010000C9451000C9451000C9451000C9451001C
:100020000C9451000C9451000C9451000C9451000C
:100030000C9451000C9451000C9451000C945100FC
:100040000C94DB040C9451000C9451000C9451005E
:100050000C9451000C9451000C9451000C945100DC
:100060000C9451000C94510011241FBECFEFD8E026
:10007000DEBFCDBF12E0A0E0B1E0E4E0F7E102C0F6
:1000800005900D92A632B107D9F725E0A6E2B2E0BD
:1000900001C01D92AB3CB207E1F70E9414090C9419
:1000A000800B0C940000C1E00E94DD02019751F426
:1000B000C093AA0224E630E040E060E080E00E94C5
:1000C000A908F2CF1092AA02F5CF6091A602709112
:1000D000A7028091A8029091A9020E9482022AE0C0
:1000E00030E040E060E080E00E94A908EECFCCE381
:1000F000D0E08091AA02813049F41092A9021092B6
:10010000A8021092A7021092A602F3CF0E94000349
:100110002091C5023091C6022130310509F051C04D
:100120002AE939E949E95FE32093AB023093AC0255
:100130004093AD025093AE02009709F047C0609122
:10014000C3027091C402072E000C880B990B0E9409
:10015000870A2DEC3CEC4CE85FE30E94130B9058AF
:100160000E944F0A7093A9026093A8026091C10295
:100170007091C202072E000C880B990B0E94870A0F
:100180002DEC3CEC4CE85FE30E94130B90580E946E
:100190004F0A7093A7026093A60287E197EBA1E54F
:1001A000BAE38093B3029093B402A093B502B093E4
:1001B000B6022AE030E040E060E080E00E94A9085A
:1001C00098CF2FE832EC45EF5CE3AECF0197863055
:1001D000910508F09DC0880F991FFC01E85FFD4F55
:1001E000808191816091BF027091C002681B790B80
:1001F000072E000C880B990B0E94870A6B017C016B
:100200002091BB023091BC024091BD025091BE02D0
:100210000E94E3094B015C018092BB029092BC02F8
:10022000A092BD02B092BE022091AB023091AC020E
:100230004091AD025091AE02C701B6010E94130B6E
:100240002B013C012091B3023091B4024091B502E0
:100250005091B602C501B4010E94130B9B01AC0181
:10026000C301B2010E94E3094B015C012091B70276
:100270003091B8024091B9025091BA02C701B6015B
:100280000E94E2092091AF023091B0024091B10288
:100290005091B2020E94130B9B01AC01C501B40145
:1002A0000E94E3090E944F0AC092B702D092B8029E
:1002B000E092B902F092BA029E01261B370B253656
:1002C000310514F024E630E02C39AFEF3A0714F48E
:1002D0002CE93FEF3093A9022093A802645C7F4F82
:1002E0006536710514F064E670E06C39BFEF7B078A
:1002F00014F46CE97FEF7093A7026093A602309329
:10030000C2022093C1027093C4026093C30251CF12
:1003100088EE93E067CF0E94500322E045EA52E066
:1003200070E060E083E590E00E94580723E046E437
:1003300053E070E060E085E690E00E94580724E01A
:1003400046E454E070E060E087E790E00E945807E0
:1003500030E020E045E060E080E00E94A908F8CFAE
:10036000861797072CF0BC01481759070CF4BA01FF
:10037000CB01089580E480937C0086E880937A0026
:100380000895F894806480937C0080917A00806462
:1003900080937A0080917A0084FFFCCF80917A006C
:1003A000806180937A0078948091780090917900B0
:1003B00093700895811105C070938900609388003F
:1003C000089570938B0060938A0008958AB1806FBE
:1003D0008AB98BB18F708BB981EA8093800083E0FA
:1003E0008093810010928500109284001092890001
:1003F000A8E8B0E01C9210928B00EAE8F0E01082CE
:1004000084B1866084B911961C921E92118210826A
:10041000089577FF02C070E060E06536710514F062
:1004200064E670E09B01220F331F75956795620F9C
:10043000731F811109C070938B0060938A007093C1
:10044000480460934704089570938900609388007E
:1004500070934C0460934B040895CF93C62F262FBE
:1004600030E081112BC08091490490914A04821799
:10047000930759F070E060E080E00E9409028FE984
:100480009FE00197F1F700C00000C1110EC05E9817
:100490005F9A10924A04109249048FE39CE90197F5
:1004A000F1F700C00000CF9108955E9A5F9881E057
:1004B00090E090934A0480934904EFCF80914D04DB
:1004C00090914E048217930759F070E060E081E04C
:1004D0000E9409028FE99FE00197F1F700C0000038
:1004E000C11107C05C9A5D9810924E0410924D04A1
:1004F000D4CF5C985D9A81E090E090934E04809315
:100500004D04CBCF0F931F93CF93DF93EC018B015F
:1005100097FF1CC061E081E00E942D02D195C1953A
:10052000D10917FF18C061E080E00E942D021195EB
:1005300001951109B80180E00E940902BE0181E025
:10054000DF91CF911F910F910C94090260E081E03F
:100550000E942D02E6CF60E080E00E942D02EACFEB
:100560008093C4001092C5001092C00088E180936F
:10057000C10086E08093C20008959091C00095FF6D
:10058000FCCF8093C6000895CF938091C00087FF71
:10059000FCCFC091C6008C2F0E94BD028C2FCF9142
:1005A0000895CF93DF93EC018991811103C0DF910E
:1005B000CF9108950E94BD02F7CF80E00E94C10153
:1005C00021E030E08436910510F030E020E0C901F0
:1005D000089584E00E94C1012BEFAC012403C00107
:1005E000259F900D112485509C4E63E370E00E947E
:1005F0009209CB016536710514F084E690E0089508
:10060000CF93DF93C0E0D1E0CC0F8D2F0E94C101CA
:100610008C3291400CF4C160DF5FD430A9F78C2F8D
:1006200090E0DF91CF91089583B182958F7091E032
:100630008927817090E0089583B186958695869587
:1006400091E08927817090E008955B9A2FEF85EA09
:100650009EE0215080409040E1F700C000005B9890
:100660002FEF85EA9EE0215080409040E1F700C0E6
:100670000000089585E00E94C101843F914010F47C
:10068000289A08952898089589B182FB882780F9CF
:1006900091E0892708950E9444038823E1F3089597
:1006A000F89485E085BD81E080936E0084E686BD88
:1006B0007894089587E60E94B0020C94BA010E94D3
:1006C0005A030E94E601539A5B98209A52985A9ACC
:1006D0002498239885B1886185B960E080E00E9404
:1006E0002D0260E081E00E942D0270E060E090E069
:1006F00080E00C9482024F925F926F927F928F9271
:100700009F92AF92BF92CF92DF92EF92FF920F93A0
:100710001F93CF93DF93CDB7DEB7DE015396ED91F4
:10072000FD918D015AE0652E712C8081853281F416
:100730005F0182E0A80EB11C8181843609F450C0AB
:1007400090F4833661F4F80180810E5F1F4F07C07B
:10075000882309F45DC05F019FEFA91AB90A0E94BE
:10076000BD02F501E2CF833771F130E1832E912C88
:10077000E12C40E1F42E883791F7F801C080D18058
:100780000E5F1F4F843659F4D7FE06C0D194C19432
:10079000D1088DE20E94BD02CE14DF0448F1C601EB
:1007A000B7010E947E092C016C5E7D4FFB018081A8
:1007B0000E94BD026201C701B4010E947E097B0153
:1007C000672B69F7CECFF801E080F1800E5F1F4FF5
:1007D000F70181917F01882321F20E94BD02F8CFA9
:1007E0009AE0892E912C20E1E22E27E2F22EC5CF4D
:1007F000C701B3010E947E097B016230710560F67A
:10080000C6010E947E09FB01EC5EFD4F8081A7CFEF
:1008100090E080E0DF91CF911F910F91FF90EF90DA
:10082000DF90CF90BF90AF909F908F907F906F9010
:100830005F904F90089500915004039500935004E9
:10084000E0916004F0916104C191CDBFD191DEBF10
:100850000F910FBFFF91EF91DF91CF91BF91AF91BA
:100860009F918F917F916F915F914F913F912F91C8
:100870001F910F91FF90EF90DF90CF90BF90AF90BE
:100880009F908F907F906F905F904F903F902F90B0
:100890001F900F9008950F921F922F923F924F92A8
:1008A0005F926F927F928F929F92AF92BF92CF9200
:1008B000DF92EF92FF920F931F932F933F934F93EB
:1008C0005F936F937F938F939F93AF93BF93CF93D8
:1008D000DF93EF93FF930FB70F93E0916804F091CC
:1008E0006904CDB7C193DEB7D1930091550400934D
:1008F0005604E0916004F0916104E0936804F09381
:100900006904C191CDBFD191DEBF0F910FBFFF919F
:10091000EF91DF91CF91BF91AF919F918F917F9197
:100920006F915F914F913F912F911F910F91FF9088
:10093000EF90DF90CF90BF90AF909F908F907F907F
:100940006F905F904F903F902F901F900F90089561
:100950000091550400935604E0916004F091610405
:10096000E0936804F0936904C191CDBFD191DEBFDB
:100970000F910FBFFF91EF91DF91CF91BF91AF9199
:100980009F918F917F916F915F914F913F912F91A7
:100990001F910F91FF90EF90DF90CF90BF90AF909D
:1009A0009F908F907F906F905F904F903F902F908F
:1009B0001F900F9008950F921F922F923F924F9287
:1009C0005F926F927F928F929F92AF92BF92CF92DF
:1009D000DF92EF92FF920F931F932F933F934F93CA
:1009E0005F936F937F938F939F93AF93BF93CF93B7
:1009F000DF93EF93FF930FB700680F9300916704A5
:100A0000039500936704013041F4CDB7DEB7E09160
:100A10006804F0916904C193D19304E606BDF0E047
:100A20001F2E78940E943E0600000E94B1050F918F
:100A30000FBFFF91EF91DF91CF91BF91AF919F9148
:100A40008F917F916F915F914F913F912F911F9166
:100A50000F91FF90EF90DF90CF90BF90AF909F905D
:100A60008F907F906F905F904F903F902F901F904E
:100A70000F900895FA018083319790833197108207
:100A800031971082319710823197108231971082FE
:100A900031971082319710823197108231971082EE
:100AA00031971082319710823197108231971082DE
:100AB00031971082319710823197108231971082CE
:100AC00031971082319710823197108231971082BE
:100AD000319710823197108231971082319760835D
:100AE000319770833197108231971082319710823D
:100AF000319710823197108231971082319780E8B8
:100B00008083CA01839708950895089508950895EC
:100B100008950895089508950895F89480915104D2
:100B200090915204A0915304B09154040196A11DD8
:100B3000B11D8093510490935204A0935304B09339
:100B4000540478940E948B05E8CF80915004813042
:100B500039F4809167048F3F19F08F5F80936704A9
:100B6000089580915004813009F04CC0F894809130
:100B70006704882319F0815080936704809167048B
:100B800081113FC080914F0481113BC0E09162040C
:100B9000F0E0E050FF4FE081E0936604AE2FB0E05C
:100BA000AD59BB4FAC91B0E0A050BF4FEE0FEE0F70
:100BB000EE0F8C91E80FE093550480915604E817EE
:100BC00001F1F0E0EE0FFF1FE755FA4F80819181B0
:100BD00090936104809360048091590490915A0429
:100BE000A0915B04B0915C040196A11DB11D80939E
:100BF000590490935A04A0935B04B0935C040E9440
:100C0000A8047894089580915004813049F4F894B0
:100C100080914F048F3F19F08F5F80934F04789439
:100C2000089580915004811128C0E0916204F0E0A1
:100C3000E050FF4FE081AE2FB0E0AD59BB4FAC911B
:100C4000B0E0A050BF4FEE0FEE0FEE0F8C91E80F0B
:100C5000E0935504E0935604F0E0EE0FFF1FE755D4
:100C6000FA4F808191819093610480936004909306
:100C70006904809368040C941B0408950E948805FD
:100C800080915004E0915704F091580421E030E045
:100C9000813001F10895F894868197810097B1F031
:100CA000019797838683892B89F4808583FD16C0FD
:100CB000809162049585892B80936204A385B0E0BE
:100CC000AD59BB4F8C919485892B8C930280F38115
:100CD000E02D789481858031F1F6DCCF378326834F
:100CE000F5CF8CEF90E008950895F8948091670413
:100CF00081113DC080914F04811139C0E09162049F
:100D0000F0E0E050FF4FE081AE2FB0E0AD59BB4FB7
:100D1000AC91B0E0A050BF4FEE0FEE0FEE0F8C91F4
:100D2000E80FE093550480915604E81701F1F0E0D4
:100D3000EE0FFF1FE755FA4F808191819093610478
:100D4000809360048091590490915A04A0915B04AF
:100D5000B0915C040196A11DB11D8093590490933C
:100D60005A04A0935B04B0935C040E944B047894F3
:100D7000089580915004813091F4F89480914F044B
:100D8000882361F0815080934F04811107C08091C6
:100D90006704811103C078940C94750678940895C3
:100DA000AC01F894A0916804B09169041B96EC9191
:100DB0001B97F0E01C969C911C979095ED59FB4F6A
:100DC00080819823908391110AC01D969C911D9754
:100DD000292F209590916204922390936204179694
:100DE0005C934E93169778940C9475061F93CF934B
:100DF000DF93F894C0915D04D0915E04209709F4CC
:100E000054C0182F8A819B8190935E0480935D0467
:100E1000789479836883198718861F821E821E86BC
:100E2000E12FE695E695E695EB87F0E0E050FE4F82
:100E300080818D87E12FE770EA87F0E0E050FE4F78
:100E400080818C87CE010E948C05CE010E94840592
:100E5000F894E12FF0E0EE0FFF1FE755FA4FD18332
:100E6000C083E0915704F0915804FB83EA831D820C
:100E70001C82309711F0D583C483D0935804C0935B
:100E80005704809162049D85892B80936204EB85D1
:100E9000F0E0ED59FB4F80819C85892B808378940D
:100EA00080E0DF91CF911F910895789486E4F9CF87
:100EB0009F92AF92BF92CF92DF92EF92FF920F93E9
:100EC0001F93CF93DF93F894C22FD0E0CC0FDD1F98
:100ED000C755DA4FE881F981EF2B09F03BC0922E1C
:100EE00021E030E039832883789430E020E00E94CC
:100EF0003A05B12CA12CD12CC12CE12CF12C87016D
:100F000030E020E050E040E0BC01892D0E94F60670
:100F1000182F81111AC0F89480915F048F5F80931D
:100F20005F04789480915004813011F40E9475061A
:100F3000812FDF91CF911F910F91FF90EF90DF9064
:100F4000CF90BF90AF909F900895F8941982188227
:100F50007894EECF789418E2EBCF0E948905109236
:100F6000670410924F0410925F0410925004109284
:100F7000590410925A0410925B0410925C0410926F
:100F8000510410925204109253041092540410927F
:100F9000620410926304109264041092650410922B
:100FA000560410925504109261041092600410923D
:100FB0006904109268041092580410925704E9EAE8
:100FC000F5E01192119285E0EB3CF807D1F7EAEADF
:100FD000F4E0CF010F9693838283FC0185E0EA3928
:100FE000F807B9F710929D0510929C058AEA94E0E3
:100FF00090935E0480935D0420E149EA54E070E040
:1010000060E08DE895E00E9458070C948A05FF92F5
:101010000F931F93CF93DF93F0906704F11076C086
:10102000F8948F3F29F4E0916804F0916904818578
:10103000082F10E0000F111FF801E755FA4FC0818B
:10104000D181209709F45EC0EB85F0E08C85809516
:10105000ED59FB4F908189238083811108C08D85D4
:10106000982F9095809162048923809362041F8257
:101070001E82188680914F048F3F19F08F5F8093F6
:101080004F047894F89480914F04882319F081508C
:1010900080934F04CE010E94850580915F048150AA
:1010A00080935F04F801E755FA4F11821082EC81BA
:1010B000FD81AA81BB813097E1F415961C921E92A6
:1010C0001497B0935804A093570480915D049091B5
:1010D0005E049B838A83D0935E04C0935D047894FE
:1010E0000E9475068F2DDF91CF911F910F91FF9078
:1010F0000895B383A283AA81BB811596FC93EE93D6
:101100001497E3CF78949CE3F92EECCF8FE3F82E7D
:10111000E9CF8F3F41F4F894E0916804F0916904BD
:10112000868578940895F894E82FF0E0EE0FFF1F7D
:10113000E755FA4F0190F081E02D8BE0309789F36D
:101140008EE3868780E0EDCF009711F00C94D006F7
:101150000895CF92DF92EF92FF9281110DC061113D
:101160000BC041110CC02115310561F484E5FF90DD
:10117000EF90DF90CF9008956C3308F04FC04C3360
:1011800008F04EC0283E93E0390708F04BC0F90143
:10119000582F262F30E0ACE3B0E00E94C8096B0165
:1011A0007C01C40ED11CE11CF11C252F30E0A0E114
:1011B000BEE00E94C809A7019601260F371F481FED
:1011C000591FA4E6B0E00E94D7096B017C019F0182
:1011D0000E94C8096C507E4F8F4F9F4F28EE33E01E
:1011E00040E050E00E94A609D701C601820F931F7C
:1011F000A41FB51F7D010E94A408E114F10411F49D
:1012000080E0B5CF80E090E80E94D00680E090E8D2
:101210000E94D00681E0E81AF108EFCF81E5A7CF60
:1012200082E5A5CF83E5A3CF0E945F030E94AD07AF
:1012300070E060E090E080E00E9482021092A702DD
:101240001092A6021092A9021092A8021092AA026D
:101250008FE892ECA5EFBCE38093AB029093AC02D5
:10126000A093AD02B093AE028DEC9CECACECBEE36F
:101270008093AF029093B002A093B102B093B202F8
:101280008FE692E1A3E0BAE38093B3029093B402B5
:10129000A093B502B093B6021092B7021092B802B2
:1012A0001092B9021092BA021092BB021092BC02C4
:1012B0001092BD021092BE021092C2021092C102A0
:1012C0001092C4021092C3021092C6021092C5027C
:1012D00088EE93E09093C0028093BF0221E046EC39
:1012E00053E070E060E08BE891E00E9458070E94B4
:1012F00025030E944B030E941106FFCFAA1BBB1BB4
:1013000051E107C0AA1FBB1FA617B70710F0A61B05
:10131000B70B881F991F5A95A9F780959095BC0126
:10132000CD01089597FB072E16F4009407D077FDA2
:1013300009D00E947E0907FC05D03EF49095819566
:101340009F4F0895709561957F4F0895A1E21A2EE1
:10135000AA1BBB1BFD010DC0AA1FBB1FEE1FFF1F59
:10136000A217B307E407F50720F0A21BB30BE40BA9
:10137000F50B661F771F881F991F1A9469F76095F0
:101380007095809590959B01AC01BD01CF010895AA
:10139000A29FB001B39FC001A39F700D811D1124B6
:1013A000911DB29F700D811D1124911D08950E9401
:1013B000C809A59F900DB49F900DA49F800D911D0D
:1013C000112408955058BB27AA270E94FA090C94AB
:1013D000D90A0E94CB0A38F00E94D20A20F039F4D0
:1013E0009F3F19F426F40C94C80A0EF4E095E7FB2D
:1013F0000C94C20AE92F0E94EA0A58F3BA1762074E
:1014000073078407950720F079F4A6F50C940C0B6C
:101410000EF4E0950B2EBA2FA02D0B01B90190010F
:101420000C01CA01A0011124FF27591B99F0593F53
:1014300050F4503E68F11A16F040A22F232F342F9B
:101440004427585FF3CF469537952795A795F040E9
:101450005395C9F77EF41F16BA0B620B730B840BFE
:10146000BAF09150A1F0FF0FBB1F661F771F881FB6
:10147000C2F70EC0BA0F621F731F841F48F487950E
:1014800077956795B795F7959E3F08F0B0CF939500
:10149000880F08F09927EE0F9795879508950E9479
:1014A000560A6894B1110C940D0B08950E94F20A2B
:1014B00088F09F5798F0B92F9927B751B0F0E1F015
:1014C000660F771F881F991F1AF0BA95C9F714C0C5
:1014D000B13091F00E940C0BB1E008950C940C0B0C
:1014E000672F782F8827B85F39F0B93FCCF38695FE
:1014F00077956795B395D9F73EF49095809570955B
:1015000061957F4F8F4F9F4F0895E89409C097FBD7
:101510003EF490958095709561957F4F8F4F9F4FCA
:101520009923A9F0F92F96E9BB279395F69587950E
:1015300077956795B795F111F8CFFAF4BB0F11F4D1
:1015400060FF1BC06F5F7F4F8F4F9F4F16C0882378
:1015500011F096E911C0772321F09EE8872F762FAE
:1015600005C0662371F096E8862F70E060E02AF0EF
:101570009A95660F771F881FDAF7880F96958795DB
:1015800097F9089597F99F6780E870E060E0089503
:101590009FEF80EC089500240A941616170618068B
:1015A0000906089500240A94121613061406050667
:1015B0000895092E0394000C11F4882352F0BB0FF8
:1015C00040F4BF2B11F460FF04C06F5F7F4F8F4F5B
:1015D0009F4F089557FD9058440F551F59F05F3F96
:1015E00071F04795880F97FB991F61F09F3F79F045
:1015F00087950895121613061406551FF2CF4695C7
:10160000F1DF08C0161617061806991FF1CF869548
:101610007105610508940895E894BB27662777272C
:10162000CB0197F908950E94260B0C94D90A0E94C9
:10163000CB0A38F00E94D20A20F0952311F00C94C6
:10164000C20A0C94C80A11240C940D0B0E94EA0AD9
:1016500070F3959FC1F3950F50E0551F629FF00105
:10166000729FBB27F00DB11D639FAA27F00DB11D1E
:10167000AA1F649F6627B00DA11D661F829F2227A7
:10168000B00DA11D621F739FB00DA11D621F839F2E
:10169000A00D611D221F749F3327A00D611D231F04
:1016A000849F600D211D822F762F6A2F11249F5752
:1016B00050409AF0F1F088234AF0EE0FFF1FBB1F55
:1016C000661F771F881F91505040A9F79E3F510514
:1016D00080F00C94C20A0C940D0B5F3FE4F3983E2B
:1016E000D4F3869577956795B795F795E7959F5FBE
:1016F000C1F7FE2B880F911D9695879597F9089550
:04170000F894FFCF8B
:1017040000000100020001000300010002000100CA
:1017140004000100020001000300010002000100B6
:1017240005000100020001000300010002000100A5
:101734000400010002000100030001000200010096
:101744000600010002000100030001000200010084
:101754000400010002000100030001000200010076
:101764000500010002000100030001000200010065
:101774000400010002000100030001000200010056
:101784000700010002000100030001000200010043
:101794000400010002000100030001000200010036
:1017A4000500010002000100030001000200010025
:1017B4000400010002000100030001000200010016
:1017C4000600010002000100030001000200010004
:1017D40004000100020001000300010002000100F6
:1017E40005000100020001000300010002000100E5
:1017F40004000100020001000300010002000100D6
:101804000102040810204080D007E803DC05000032
:10181400E803F40130313233343536373839414254
:06182400434445460000AC
:00000001FF
