:100000000C9434000C9451000C9451000C94510049
:100010000C9451000C9451000C9451000C9451001C
:100020000C9451000C9451000C9451000C9451000C
:100030000C9451000C9451000C9451000C945100FC
:100040000C9495060C9451000C9451000C945100A2
:100050000C9451000C9451000C9451000C945100DC
:100060000C9451000C94510011241FBECFEFD8E026
:10007000DEBFCDBF12E0A0E0B1E0E8EAFAE102C0E5
:1000800005900D92A634B107D9F725E0A6E4B2E0B9
:1000900001C01D92A33FB207E1F70E94CE0A0C9463
:1000A000520D0C940000C1E00E949704019751F496
:1000B000C093CA0224E630E040E060E080E00E94A5
:1000C000630AF2CF1092CA02F5CF6091C602709116
:1000D000C7028091C8029091C9020E943C0425E0A9
:1000E00030E040E060E080E00E94630AEECF0E94D2
:1000F0000A0522E045EC52E070E060E083E590E024
:100100000E94120923E04EE653E070E060E085E6CD
:1001100090E00E94120924E04EE654E070E060E0B6
:100120008EE691E00E94120930E020E045E060E0B8
:1001300080E00E94630AF8CF861797072CF0BC0175
:10014000481759070CF4BA01CB01089597FF03C073
:1001500091958195910908954F925F926F927F9248
:100160008F929F92AF92BF92CF92DF92EF92FF92C7
:100170002091E9023091EA022130310561F448EB27
:100180005EE165E87DE34093CB025093CC0260933F
:10019000CD027093CE026091DF027091E002681B85
:1001A000790B072E000C880B990B0E94590C6B01E0
:1001B0007C012091DB023091DC024091DD02509104
:1001C000DE020E94B50B4B015C018092DB02909233
:1001D000DC02A092DD02B092DE022091CB023091CF
:1001E000CC024091CD025091CE02C701B6010E94CF
:1001F000E50C2B013C012091D3023091D4024091B7
:10020000D5025091D602C501B4010E94E50C9B01B4
:10021000AC01C301B2010E94B50B4B015C012091FE
:10022000D7023091D8024091D9025091DA02C70129
:10023000B6010E94B40B2091CF023091D0024091C0
:10024000D1025091D2020E94E50C9B01AC01C50184
:10025000B4010E94B50B0E94210CC092D702D0922B
:10026000D802E092D902F092DA0229E130E0261BAE
:10027000370B2536310514F024E630E02C394FEFEA
:10028000340714F42CE93FEF3093C9022093C802DD
:10029000675E7F4F6536710514F064E670E06C3977
:1002A0008FEF780714F46CE97FEF7093C7026093C7
:1002B000C6023093E2022093E1027093E40260935D
:1002C000E302FF90EF90DF90CF90BF90AF909F90B0
:1002D0008F907F906F905F904F900895512C412C9C
:1002E000C2EEDFEF01E410E06DEDE62EFF24FA949C
:1002F0007DE2672E712CE2E3CE2ED12CFEE18F2E13
:10030000912CACE32A2E312C89E192E09F938F93BC
:100310000E9435050E94A3045C010E94FE040F9018
:100320000F90882319F10E94FE048111FCCF8FEFFA
:10033000481A580A95E04916510464F181E090E0AA
:100340009093EC028093EB028091EB029091EC028F
:10035000019711F40E94DF048091EB029091EC026E
:10036000892B21F485B191E0892785B98091CA0252
:10037000813009F056C08091E9029091EA0201971C
:1003800009F51092C9021092C8021092C702109289
:10039000C602BACF8091E5029091E602892B69F4FA
:1003A0008091EB029091EC02892B39F481E090E08E
:1003B0009093E6028093E502C7CF1092E602109276
:1003C000E502C2CF83E292E09F938F930E943505AE
:1003D0001092EA021092E9021092E6021092E502EF
:1003E0009092C9028092C802D093C702C093C602FD
:1003F00020E233E040E060E080E00E94630A309257
:10040000C9022092C8023092C7022092C60220E29E
:1004100033E041E060E080E00E94630A0F900F90BB
:1004200073CF95E5A916B1049CF18091E9029091F2
:10043000EA02892B69F586E392E09F938F930E94ED
:1004400035051092E6021092E50281E090E090936B
:10045000EA028093E9029092C9028092C8029092C7
:10046000C7028092C60228E532E040E060E080E00A
:100470000E94630A8FEB9FEF9093C9028093C8029A
:100480001093C7020093C60228EC30E040E0C2CFD0
:10049000A090DF02B090E0020E94BA04FC0120911B
:1004A000E5023091E6022130310519F5089708F090
:1004B0004BC0E35AFD4F0C94940BAD02AD02920277
:1004C00065029C0292027402AD025CEDA52E55E01D
:1004D000B52EC5010E94AC0025E030E040E060E0B0
:1004E00080E00E94630A10CF44EFA42EBB24B39493
:1004F000F0CF2091E9023091EA022130310591F5E7
:1005000025B131E0232725B90897F0F4E657FD4FD0
:100510000C94940B9202AD02920297029C029202FA
:100520009F02920238EEA32E33E0B32ED2CF24ECFA
:10053000A22E29E0B22ECDCFB12CA12CCACF9CE0A7
:10054000A92E9EEFB92EC5CFD093C902C093C80281
:10055000D093C702C093C602BCCF80EDA82E87E01F
:10056000B82EB7CF2091EB023091EC02213031054B
:1005700009F03AC0089708F0AEC0EF53FD4F0C9455
:10058000940BEB020C03030315031A03C9022E0399
:10059000E4028BE490E09093C9028093C8029093A8
:1005A000C7028093C6028091C8029091C9029093BD
:1005B000E2028093E1028091C6029091C70290937B
:1005C000E4028093E30288CF1093C9020093C8022B
:1005D0008BE490E0E4CF9092C9028092C8023092FE
:1005E000C7022092C60278CF089708F074C0E55081
:1005F000FD4F0C94940B3A030C03030315031A03E9
:1006000023032E033303D092C902C092C802D092B2
:10061000C702C092C602C7CF7092C9026092C802D8
:10062000F092C702E092C602BECF1093C9020093B7
:10063000C802F6CFF092C902E092C8027092C702D7
:100640006092C602B0CF8FEB9FEF9093C902809368
:10065000C8021093C7020093C602A5CFF092C90248
:10066000E092C802F6CF1093C9020093C8028FEB44
:100670009FEF95CF6091E3027091E402665F7F4F38
:10068000072E000C880B990B0E94590C2AE939E9B6
:1006900049E15FE30E94E50C90580E94210C7093A1
:1006A000C9026093C8026091E1027091E202072ED4
:1006B000000C880B990B0E94590C2AE939E949E191
:1006C0005FE30E94E50C90580E94210C7093C702D2
:1006D0006093C60201CFD093C902C093C802D093E1
:1006E000C702C093C6025FCF80E480937C0086E897
:1006F00080937A000895F894806480937C008091C0
:100700007A00806480937A0080917A0084FFFCCF25
:1007100080917A00806180937A007894809178004B
:100720009091790093700895811105C070938900AC
:1007300060938800089570938B0060938A000895F9
:100740008AB1806F8AB98BB18F708BB981EA80933F
:10075000800083E0809381001092850010928400D5
:1007600010928900A8E8B0E01C9210928B00EAE891
:10077000F0E0108284B1866084B911961C921E92BA
:1007800011821082089577FF02C070E060E0653644
:10079000710514F064E670E09B01220F331F75951C
:1007A0006795620F731F811109C070938B0060936E
:1007B0008A007093700460936F04089570938900A9
:1007C0006093880070937404609373040895CF93CA
:1007D000C62F262F30E081112BC08091710490919B
:1007E00072048217930759F070E060E080E00E9485
:1007F000C3038FE99FE00197F1F700C00000C1112A
:100800000EC05E985F9A10927204109271048FE38A
:100810009CE90197F1F700C00000CF9108955E9A1E
:100820005F9881E090E09093720480937104EFCF21
:1008300080917504909176048217930759F070E0C7
:1008400060E081E00E94C3038FE99FE00197F1F728
:1008500000C00000C11107C05C9A5D981092760438
:1008600010927504D4CF5C985D9A81E090E09093EB
:10087000760480937504CBCF0F931F93CF93DF93B0
:10088000EC018B0197FF1CC061E081E00E94E7034F
:10089000D195C195D10917FF18C061E080E00E9491
:1008A000E703119501951109B80180E00E94C30387
:1008B000BE0181E0DF91CF911F910F910C94C30392
:1008C00060E081E00E94E703E6CF60E080E00E9404
:1008D000E703EACF8093C4001092C5001092C000D5
:1008E00088E18093C10086E08093C20008959091D2
:1008F000C00095FFFCCF8093C6000895CF938091F0
:10090000C00087FFFCCFC091C6008C2F0E947704E7
:100910008C2FCF910895CF93DF93EC0189918111B2
:1009200003C0DF91CF9108950E947704F7CF80E054
:100930000E947B0321E030E08436910510F030E026
:1009400020E0C901089584E00E947B032BEFAC01F5
:100950002403C001259F900D112485509C4E63E314
:1009600070E00E945E0BCB016536710514F084E6E1
:1009700090E00895CF93DF93C0E0D1E0CC0F8D2FAE
:100980000E947B038C3291400CF4C160DF5FD43055
:10099000A9F78C2F90E0DF91CF91089583B18295D4
:1009A0008F7091E08927817090E0089583B18695DA
:1009B0008695869591E08927817090E008955B9AED
:1009C0002FEF85EA9EE0215080409040E1F700C083
:1009D00000005B982FEF85EA9EE021508040904018
:1009E000E1F700C00000089585E00E947B03843F8A
:1009F000914010F4289A08952898089589B182FBAF
:100A0000882780F991E0892708950E94FE048823B1
:100A1000E1F30895F89485E085BD81E080936E0050
:100A200084E686BD7894089587E60E946A040C9453
:100A300074030E9414050E94A003539A5B98209AA5
:100A400052985A9A2498239885B1886185B960E0B4
:100A500080E00E94E70360E081E00E94E70370E02D
:100A600060E090E080E00C943C044F925F926F92C3
:100A70007F928F929F92AF92BF92CF92DF92EF922E
:100A8000FF920F931F93CF93DF93CDB7DEB7DE01B5
:100A90005396ED91FD918D015AE0652E712C808168
:100AA000853281F45F0182E0A80EB11C8181843619
:100AB00009F450C090F4833661F4F80180810E5F30
:100AC0001F4F07C0882309F45DC05F019FEFA91A7B
:100AD000B90A0E947704F501E2CF833771F130E162
:100AE000832E912CE12C40E1F42E883791F7F80108
:100AF000C080D1800E5F1F4F843659F4D7FE06C0E8
:100B0000D194C194D1088DE20E947704CE14DF0401
:100B100048F1C601B7010E944A0B2C01685F7D4F66
:100B2000FB0180810E9477046201C701B4010E9429
:100B30004A0B7B01672B69F7CECFF801E080F1808B
:100B40000E5F1F4FF70181917F01882321F20E94E0
:100B50007704F8CF9AE0892E912C20E1E22E27E24B
:100B6000F22EC5CFC701B3010E944A0B7B01623050
:100B7000710560F6C6010E944A0BFB01E85FFD4F5C
:100B80008081A7CF90E080E0DF91CF911F910F91FE
:100B9000FF90EF90DF90CF90BF90AF909F908F909D
:100BA0007F906F905F904F90089500917804039527
:100BB00000937804E0918804F0918904C191CDBF3D
:100BC000D191DEBF0F910FBFFF91EF91DF91CF91D8
:100BD000BF91AF919F918F917F916F915F914F9155
:100BE0003F912F911F910F91FF90EF90DF90CF9049
:100BF000BF90AF909F908F907F906F905F904F903D
:100C00003F902F901F900F9008950F921F922F9258
:100C10003F924F925F926F927F928F929F92AF928C
:100C2000BF92CF92DF92EF92FF920F931F932F9379
:100C30003F934F935F936F937F938F939F93AF9364
:100C4000BF93CF93DF93EF93FF930FB70F93E09191
:100C50009004F0919104CDB7C193DEB7D193009188
:100C60007D0400937E04E0918804F0918904E09370
:100C70009004F0939104C191CDBFD191DEBF0F914B
:100C80000FBFFF91EF91DF91CF91BF91AF919F91F6
:100C90008F917F916F915F914F913F912F911F9114
:100CA0000F91FF90EF90DF90CF90BF90AF909F900B
:100CB0008F907F906F905F904F903F902F901F90FC
:100CC0000F90089500917D0400937E04E0918804C4
:100CD000F0918904E0939004F0939104C191CDBF09
:100CE000D191DEBF0F910FBFFF91EF91DF91CF91B7
:100CF000BF91AF919F918F917F916F915F914F9134
:100D00003F912F911F910F91FF90EF90DF90CF9027
:100D1000BF90AF909F908F907F906F905F904F901B
:100D20003F902F901F900F9008950F921F922F9237
:100D30003F924F925F926F927F928F929F92AF926B
:100D4000BF92CF92DF92EF92FF920F931F932F9358
:100D50003F934F935F936F937F938F939F93AF9343
:100D6000BF93CF93DF93EF93FF930FB700680F9379
:100D700000918F04039500938F04013041F4CDB7A7
:100D8000DEB7E0919004F0919104C193D19304E611
:100D900006BDF0E01F2E78940E94F80700000E9424
:100DA0006B070F910FBFFF91EF91DF91CF91BF9133
:100DB000AF919F918F917F916F915F914F913F91F3
:100DC0002F911F910F91FF90EF90DF90CF90BF90E8
:100DD000AF909F908F907F906F905F904F903F90DB
:100DE0002F901F900F900895FA0180833197908380
:100DF000319710823197108231971082319710828B
:100E0000319710823197108231971082319710827A
:100E1000319710823197108231971082319710826A
:100E2000319710823197108231971082319710825A
:100E3000319710823197108231971082319710824A
:100E4000319710823197108231971082319710823A
:100E50003197608331977083319710823197108278
:100E6000319710823197108231971082319710821A
:100E7000319780E88083CA01839708950895089583
:100E80000895089508950895089508950895F8948B
:100E90008091790490917A04A0917B04B0917C04B4
:100EA0000196A11DB11D8093790490937A04A093BB
:100EB0007B04B0937C0478940E944507E8CF80912E
:100EC0007804813039F480918F048F3F19F08F5F5F
:100ED00080938F04089580917804813009F04CC08C
:100EE000F89480918F04882319F0815080938F04A7
:100EF00080918F0481113FC08091770481113BC0A4
:100F0000E0918A04F0E0E050FF4FE081E0938E042E
:100F1000AE2FB0E0A557BB4FAC91B0E0A050BF4F93
:100F2000EE0FEE0FEE0F8C91E80FE0937D048091B1
:100F30007E04E81701F1F0E0EE0FFF1FEF52FA4FC9
:100F400080819181909389048093880480918104A9
:100F500090918204A0918304B09184040196A11D14
:100F6000B11D8093810490938204A0938304B09375
:100F700084040E94620678940895809178048130F8
:100F800049F4F894809177048F3F19F08F5F809334
:100F900077047894089580917804811128C0E091B5
:100FA0008A04F0E0E050FF4FE081AE2FB0E0A5579B
:100FB000BB4FAC91B0E0A050BF4FEE0FEE0FEE0F65
:100FC0008C91E80FE0937D04E0937E04F0E0EE0F57
:100FD000FF1FEF52FA4F8081918190938904809393
:100FE000880490939104809390040C94D5050895FF
:100FF0000E94420780917804E0917F04F091800480
:1010000021E030E0813001F10895F89486819781E4
:101010000097B1F0019797838683892B89F48085A7
:1010200083FD16C080918A049585892B80938A045C
:10103000A385B0E0A557BB4F8C919485892B8C93E9
:101040000280F381E02D789481858031F1F6DCCF48
:1010500037832683F5CF8CEF90E008950895F894B8
:1010600080918F0481113DC080917704811139C036
:10107000E0918A04F0E0E050FF4FE081AE2FB0E055
:10108000A557BB4FAC91B0E0A050BF4FEE0FEE0F95
:10109000EE0F8C91E80FE0937D0480917E04E817B9
:1010A00001F1F0E0EE0FFF1FEF52FA4F80819181C6
:1010B00090938904809388048091810490918204A4
:1010C000A0918304B09184040196A11DB11D809369
:1010D000810490938204A0938304B09384040E94BB
:1010E00005067894089580917804813091F4F894FD
:1010F00080917704882361F0815080937704811177
:1011000007C080918F04811103C078940C942F083C
:1011100078940895AC01F894A0919004B091910452
:101120001B96EC911B97F0E01C969C911C97909558
:10113000E557FB4F80819823908391110AC01D963B
:101140009C911D97292F209590918A04922390932A
:101150008A0417965C934E93169778940C942F08F4
:101160001F93CF93DF93F894C0918504D0918604A8
:10117000209709F454C0182F8A819B81909386048C
:1011800080938504789479836883198718861F82F1
:101190001E821E86E12FE695E695E695EB87F0E048
:1011A000E050FE4F80818D87E12FE770EA87F0E005
:1011B000E050FE4F80818C87CE010E944607CE0111
:1011C0000E943E07F894E12FF0E0EE0FFF1FEF5270
:1011D000FA4FD183C083E0917F04F0918004FB83B8
:1011E000EA831D821C82309711F0D583C483D0938B
:1011F0008004C0937F0480918A049D85892B80930D
:101200008A04EB85F0E0E557FB4F80819C85892BB4
:101210008083789480E0DF91CF911F910895789436
:1012200086E4F9CF9F92AF92BF92CF92DF92EF9276
:10123000FF920F931F93CF93DF93F894C22FD0E0C8
:10124000CC0FDD1FCF52DA4FE881F981EF2B09F087
:101250003BC0922E21E030E039832883789430E03F
:1012600020E00E94F406B12CA12CD12CC12CE12C41
:10127000F12C870130E020E050E040E0BC01892DF6
:101280000E94B008182F81111AC0F8948091870429
:101290008F5F80938704789480917804813011F473
:1012A0000E942F08812FDF91CF911F910F91FF9006
:1012B000EF90DF90CF90BF90AF909F900895F894FB
:1012C000198218827894EECF789418E2EBCF0E94BE
:1012D000430710928F0410927704109287041092A3
:1012E0007804109281041092820410928304109268
:1012F00084041092790410927A0410927B04109264
:101300007C0410928A0410928B0410928C04109228
:101310008D0410927E0410927D0410928904109224
:1013200088041092910410929004109280041092FC
:101330007F04E1EDF5E01192119285E0E33FF807BB
:10134000D1F7E2EDF4E0CF010F9693838283FC01A5
:1013500085E0E23CF807B9F71092C5051092C40584
:1013600082ED94E0909386048093850420E141ED22
:1013700054E070E060E087E497E00E9412090C946A
:101380004407FF920F931F93CF93DF93F0908F0446
:10139000F11076C0F8948F3F29F4E0919004F09119
:1013A00091048185082F10E0000F111FF801EF5202
:1013B000FA4FC081D181209709F45EC0EB85F0E03F
:1013C0008C858095E557FB4F90818923808381111F
:1013D00008C08D85982F909580918A0489238093E9
:1013E0008A041F821E821886809177048F3F19F02D
:1013F0008F5F809377047894F894809177048823A2
:1014000019F0815080937704CE010E943F078091AC
:101410008704815080938704F801EF52FA4F1182BC
:101420001082EC81FD81AA81BB813097E1F4159691
:101430001C921E921497B0938004A0937F04809115
:101440008504909186049B838A83D0938604C093FD
:10145000850478940E942F088F2DDF91CF911F91E2
:101460000F91FF900895B383A283AA81BB81159643
:10147000FC93EE931497E3CF78949CE3F92EECCF92
:101480008FE3F82EE9CF8F3F41F4F894E091900478
:10149000F0919104868578940895F894E82FF0E00F
:1014A000EE0FFF1FEF52FA4F0190F081E02D8BE01D
:1014B000309789F38EE3868780E0EDCF009711F0B7
:1014C0000C948A080895CF92DF92EF92FF928111D7
:1014D0000DC061110BC041110CC02115310561F423
:1014E00084E5FF90EF90DF90CF9008956C3308F083
:1014F0004FC04C3308F04EC0283E93E0390708F047
:101500004BC0F901582F262F30E0ACE3B0E00E9429
:101510009A0B6B017C01C40ED11CE11CF11C252F20
:1015200030E0A0E1BEE00E949A0BA7019601260FD1
:10153000371F481F591FA4E6B0E00E94A90B6B019A
:101540007C019F010E949A0B6C507E4F8F4F9F4FE2
:1015500028EE33E040E050E00E94720BD701C60154
:10156000820F931FA41FB51F7D010E945E0AE11424
:10157000F10411F480E0B5CF80E090E80E948A0881
:1015800080E090E80E948A0881E0E81AF108EFCF35
:1015900081E5A7CF82E5A5CF83E5A3CF0E941905FA
:1015A0000E94670970E060E090E080E00E943C04E7
:1015B0001092C7021092C6021092C9021092C8027D
:1015C0001092CA0284EF9DEFA4E5BDE38093CB02A5
:1015D0009093CC02A093CD02B093CE0281E398E029
:1015E000ACE2BDE38093CF029093D002A093D102EE
:1015F000B093D2028CEA95ECA7EAB7E38093D302CA
:101600009093D402A093D502B093D6021092D70241
:101610001092D8021092D9021092DA021092DB02D4
:101620001092DC021092DD021092DE021092E202B1
:101630001092E1021092E4021092E3021092E6028C
:101640001092E5021092E8021092E7021092EA026C
:101650001092E9021092EC021092EB0281E090E00D
:101660009093EE028093ED0288EE93E09093E00277
:101670008093DF0221E04EEE53E070E060E087E708
:1016800090E00E9412090E94DF040E9405050E945A
:10169000CB07FFCFAA1BBB1B51E107C0AA1FBB1F73
:1016A000A617B70710F0A61BB70B881F991F5A95EE
:1016B000A9F780959095BC01CD01089597FB072E61
:1016C00016F4009407D077FD09D00E944A0B07FC5E
:1016D00005D03EF4909581959F4F08957095619542
:1016E0007F4F0895A1E21A2EAA1BBB1BFD010DC05E
:1016F000AA1FBB1FEE1FFF1FA217B307E407F507C2
:1017000020F0A21BB30BE40BF50B661F771F881F9D
:10171000991F1A9469F760957095809590959B0133
:10172000AC01BD01CF010895EE0FFF1F0590F491AC
:10173000E02D0994A29FB001B39FC001A39F700D3B
:10174000811D1124911DB29F700D811D1124911DC9
:1017500008950E949A0BA59F900DB49F900DA49F91
:10176000800D911D112408955058BB27AA270E946F
:10177000CC0B0C94AB0C0E949D0C38F00E94A40C76
:1017800020F039F49F3F19F426F40C949A0C0EF4CF
:10179000E095E7FB0C94940CE92F0E94BC0C58F3E5
:1017A000BA17620773078407950720F079F4A6F546
:1017B0000C94DE0C0EF4E0950B2EBA2FA02D0B012D
:1017C000B90190010C01CA01A0011124FF27591B86
:1017D00099F0593F50F4503E68F11A16F040A22F8C
:1017E000232F342F4427585FF3CF469537952795FD
:1017F000A795F0405395C9F77EF41F16BA0B620BFC
:10180000730B840BBAF09150A1F0FF0FBB1F661F42
:10181000771F881FC2F70EC0BA0F621F731F841F85
:1018200048F4879577956795B795F7959E3F08F0AB
:10183000B0CF9395880F08F09927EE0F979587956D
:1018400008950E94280C6894B1110C94DF0C08953F
:101850000E94C40C88F09F5798F0B92F9927B75170
:10186000B0F0E1F0660F771F881F991F1AF0BA9544
:10187000C9F714C0B13091F00E94DE0CB1E00895B8
:101880000C94DE0C672F782F8827B85F39F0B93FAA
:10189000CCF3869577956795B395D9F73EF49095F7
:1018A0008095709561957F4F8F4F9F4F0895E89475
:1018B00009C097FB3EF490958095709561957F4F98
:1018C0008F4F9F4F9923A9F0F92F96E9BB27939546
:1018D000F695879577956795B795F111F8CFFAF456
:1018E000BB0F11F460FF1BC06F5F7F4F8F4F9F4F87
:1018F00016C0882311F096E911C0772321F09EE8E5
:10190000872F762F05C0662371F096E8862F70E04A
:1019100060E02AF09A95660F771F881FDAF7880F24
:101920009695879597F9089597F99F6780E870E0F5
:1019300060E008959FEF80EC089500240A94161645
:10194000170618060906089500240A9412161306AD
:10195000140605060895092E0394000C11F488233B
:1019600052F0BB0F40F4BF2B11F460FF04C06F5F57
:101970007F4F8F4F9F4F089557FD9058440F551F2D
:1019800059F05F3F71F04795880F97FB991F61F001
:101990009F3F79F087950895121613061406551F78
:1019A000F2CF4695F1DF08C0161617061806991FE4
:1019B000F1CF86957105610508940895E894BB27D9
:1019C00066277727CB0197F908950E94F80C0C94AD
:1019D000AB0C0E949D0C38F00E94A40C20F09523C3
:1019E00011F00C94940C0C949A0C11240C94DF0CB0
:1019F0000E94BC0C70F3959FC1F3950F50E0551FEA
:101A0000629FF001729FBB27F00DB11D639FAA2753
:101A1000F00DB11DAA1F649F6627B00DA11D661FA2
:101A2000829F2227B00DA11D621F739FB00DA11DC3
:101A3000621F839FA00D611D221F749F3327A00D7D
:101A4000611D231F849F600D211D822F762F6A2F19
:101A500011249F5750409AF0F1F088234AF0EE0F7E
:101A6000FF1FBB1F661F771F881F91505040A9F7AB
:101A70009E3F510580F00C94940C0C94DF0C5F3F5A
:101A8000E4F3983ED4F3869577956795B795F795E7
:101A9000E7959F5FC1F7FE2B880F911D969587955F
:081AA00097F90895F894FFCFB7
:101AA8000000010002000100030001000200010023
:101AB800040001000200010003000100020001000F
:101AC80005000100020001000300010002000100FE
:101AD80004000100020001000300010002000100EF
:101AE80006000100020001000300010002000100DD
:101AF80004000100020001000300010002000100CF
:101B080005000100020001000300010002000100BD
:101B180004000100020001000300010002000100AE
:101B2800070001000200010003000100020001009B
:101B3800040001000200010003000100020001008E
:101B4800050001000200010003000100020001007D
:101B5800040001000200010003000100020001006E
:101B6800060001000200010003000100020001005C
:101B7800040001000200010003000100020001004E
:101B8800050001000200010003000100020001003D
:101B9800040001000200010003000100020001002E
:101BA8000102040810204080303132333435363792
:101BB8003839414243444546004E6176696761744D
:101BC800650A004F62737461636C652044657465CF
:101BD800637465640A004C696768742044657465B9
:061BE800637465640A004D
:00000001FF
